{
  "contractName": "Prosumer",
  "abi": [
    {
      "inputs": [
        {
          "name": "_owner",
          "type": "address"
        }
      ],
      "payable": false,
      "stateMutability": "nonpayable",
      "type": "constructor"
    },
    {
      "constant": false,
      "inputs": [
        {
          "name": "_storage",
          "type": "address"
        }
      ],
      "name": "addNewStorage",
      "outputs": [],
      "payable": false,
      "stateMutability": "nonpayable",
      "type": "function"
    },
    {
      "constant": true,
      "inputs": [],
      "name": "getStorages",
      "outputs": [
        {
          "name": "",
          "type": "address[]"
        }
      ],
      "payable": false,
      "stateMutability": "view",
      "type": "function"
    }
  ],
  "bytecode": "0x608060405234801561001057600080fd5b506040516020806103ab83398101806040528101908080519060200190929190505050336000806101000a81548173ffffffffffffffffffffffffffffffffffffffff021916908373ffffffffffffffffffffffffffffffffffffffff16021790555080600160006101000a81548173ffffffffffffffffffffffffffffffffffffffff021916908373ffffffffffffffffffffffffffffffffffffffff160217905550506102e7806100c46000396000f30060806040526004361061004c576000357c0100000000000000000000000000000000000000000000000000000000900463ffffffff1680635777809914610051578063fe42fcde146100bd575b600080fd5b34801561005d57600080fd5b50610066610100565b6040518080602001828103825283818151815260200191508051906020019060200280838360005b838110156100a957808201518184015260208101905061008e565b505050509050019250505060405180910390f35b3480156100c957600080fd5b506100fe600480360381019080803573ffffffffffffffffffffffffffffffffffffffff16906020019092919050505061018e565b005b6060600280548060200260200160405190810160405280929190818152602001828054801561018457602002820191906000526020600020905b8160009054906101000a900473ffffffffffffffffffffffffffffffffffffffff1673ffffffffffffffffffffffffffffffffffffffff168152602001906001019080831161013a575b5050505050905090565b6000809054906101000a900473ffffffffffffffffffffffffffffffffffffffff1673ffffffffffffffffffffffffffffffffffffffff163373ffffffffffffffffffffffffffffffffffffffff16141515610252576040517f08c379a000000000000000000000000000000000000000000000000000000000815260040180806020018281038252600d8152602001807f4e6f207065726d697373696f6e0000000000000000000000000000000000000081525060200191505060405180910390fd5b60028190806001815401808255809150509060018203906000526020600020016000909192909190916101000a81548173ffffffffffffffffffffffffffffffffffffffff021916908373ffffffffffffffffffffffffffffffffffffffff16021790555050505600a165627a7a723058207d66965f2aaf4300b411afadad403bb464ea143d9bf65c3e34e20bbde53eb92b0029",
  "source": "pragma solidity ^0.4.24;\n\ncontract Home {\n    uint interval = 10;\n    address owner;\n    address[] prosumerAddress;\n    Storage[] public storages;\n    mapping(address => Prosumer) prosumer;\n    mapping(uint => mapping(uint => Storage)) public storageGrid;\n    TokenBase tokenBase;\n    uint tokenForOneCapacity = 1;\n    uint pauschale = 10;\n\n    bool on = false;\n\n    constructor() public {\n        owner = msg.sender;\n        tokenBase = new TokenBase();\n    }\n\n    function setOn() public{\n      on = true;\n    }\n\n    function getOn() public view returns(bool){\n      return on;\n    }\n\n    function getCapaOfMyStorage(uint _stNbr) public view returns(uint){\n        return prosumer[msg.sender].getStorages()[_stNbr].getUnusedCapaInNextInterval();\n    }\n\n    function getNbrOfClaims() public view returns(uint){\n         return prosumer[msg.sender].getStorages()[0].getNbrOfClaims();\n    }\n\n    function getPauschale() public view returns(uint){\n        return pauschale;\n    }\n\n    function getUnusedCapaInNextInterval() public view returns(uint value){\n        for(uint i = 0; i < storages.length; i++){\n            value += storages[i].getUnusedCapaInNextInterval();\n        }\n    }\n\n    function setPauschale(uint _value) public {\n        pauschale = _value;\n    }\n\n    function getTokenForOneCapacity() public view returns (uint){\n        return tokenForOneCapacity;\n    }\n\n    function balanceOf(address _owner) public view returns (uint256 balance) {\n        return tokenBase.balanceOf(_owner);\n    }\n\n    function claim() public {\n        require(prosumer[msg.sender].getStorages().length > 0);\n        for(uint i = 0; i <  prosumer[msg.sender].getStorages().length; i++){\n            tokenBase.giveTokenFromTo(msg.sender, prosumer[msg.sender].getStorages()[i].claim());\n            prosumer[msg.sender].getStorages()[i].setLastClaimedToNow();\n        }\n    }\n\n    //setter\n    function useCapaInNextIntervalFromXY(uint _x, uint _y, uint _value) public returns(uint capaLeft) {\n        return storageGrid[_x][_y].useCapaInNextInterval(_value);\n    }\n\n    function getMaxCapa() public view returns(uint maxCapa) {\n        for(uint i = 0; i < storages.length; i++){\n            maxCapa += storages[i].getCapa();\n        }\n    }\n\n    function changeCapa(uint _stNbr, uint _capa) public {\n        prosumer[msg.sender].getStorages()[_stNbr].changeCapa(_capa);\n    }\n\n    function getMyStorages() public view returns(Storage[]) {\n        return prosumer[msg.sender].getStorages();\n    }\n\n    function getInterval() public view returns(uint){\n        return interval;\n    }\n\n    function setMyStorageOffline(uint _stNbr) public {\n        prosumer[msg.sender].getStorages()[_stNbr].setOffline();\n    }\n\n    function setMyStorageOnline(uint _stNbr) public {\n        prosumer[msg.sender].getStorages()[_stNbr].setOnline();\n    }\n\n    function useCapaInNextIntervalForXY(uint _x, uint _y, uint _value) public returns(uint valueLeft){\n        uint index = 0;\n        uint shortest = uint(int(-1));\n        valueLeft = _value;\n        for(uint i = 0; i < storages.length; i++){\n            if(storages[i].getUnusedCapaInNextInterval() > 0){\n                uint x = 0;\n                uint y = 0;\n                uint len = 0;\n                (x, y) = storages[i].getXY();\n                //Abs\n                if(_x > x)\n                    len = _x - x;\n                else\n                    len = x - _x;\n                if(_y > y)\n                    len += _y - y;\n                else\n                    len += y - _y;\n                if(len < shortest){\n                    shortest = len;\n                    index = i;\n                }\n            }\n        }\n        uint space = storages[index].getUnusedCapaInNextInterval();\n        if(space >= valueLeft){\n            storages[index].useCapaInNextInterval(valueLeft);\n            valueLeft = 0;\n        }\n        else {\n            storages[index].useCapaInNextInterval(space);\n            valueLeft -= space;\n            useCapaInNextIntervalForXY(_x, _y, valueLeft);\n        }\n\n    }\n\n    //New\n\n    function newProsumer() public {\n        prosumer[msg.sender] = new Prosumer(msg.sender);\n        prosumerAddress.push(msg.sender);\n    }\n\n    function addNewStorage(uint _x, uint _y, uint _capacity) public {\n        Storage newStorage = new Storage(msg.sender, _x, _y, _capacity);\n        storages.push(newStorage);\n        storageGrid[_x][_y] = newStorage;\n        prosumer[msg.sender].addNewStorage(address(newStorage));\n    }\n\n    // Intervall\n\n    function getActualInterval() public view returns(uint) {\n        return now - (now % interval);\n    }\n\n    function getNextInterval() public view returns(uint) {\n        return now - (now % interval) + interval;\n    }\n\n    //Getter\n    function getStorageFromXY(uint _x, uint _y) public view returns(Storage) {\n        return storageGrid[_x][_y];\n    }\n\n    function getUnusedCapaInNextInterval(uint _x, uint _y) public view returns(uint) {\n        return storageGrid[_x][_y].getUnusedCapaInNextInterval();\n    }\n\n    function getMyUnusedCapaInNextInterval(uint _x) public view returns(uint){\n      prosumer[msg.sender].getStorages()[_x].getUnusedCapaInNextInterval();\n    }\n\n\n\n}\n\ncontract Prosumer {\n    Home home;\n    address owner;\n    Storage[] storages;\n\n\n    constructor(address _owner) public{\n        home = Home(msg.sender);\n        owner = _owner;\n    }\n\n    function addNewStorage(address _storage) public {\n        require(msg.sender == address(home), \"No permission\");\n        storages.push(Storage(_storage));\n    }\n\n    function getStorages() public view returns (Storage[]){\n        return storages;\n    }\n\n}\n\ncontract Storage {\n    Home home;\n    uint x;\n    uint y;\n    Prosumer owner;\n    uint maxCapa;\n    uint capa;\n    mapping(uint => uint) usedCapaInInterval;\n    uint lastClaimed;\n\n    struct Coordinates{\n        uint x;\n        uint y;\n    }\n\n    Coordinates coordinates;\n\n\n    constructor(address _owner, uint _x, uint _y, uint _capa) public{\n        owner = Prosumer(_owner);\n        capa = _capa;\n        home = Home(msg.sender);\n        coordinates.x = _x;\n        coordinates.y = _y;\n        maxCapa = _capa;\n        lastClaimed = now;\n    }\n\n    function setOffline() public {\n        capa = 0;\n    }\n\n    function setOnline() public {\n        capa = maxCapa;\n    }\n\n    function changeCapa(uint _capa) public{\n        capa = _capa;\n        maxCapa = _capa;\n    }\n\n    function changeXY(uint _x, uint _y) public{\n        coordinates.x = _x;\n        coordinates.y = _y;\n    }\n\n    function getXY() public view returns(uint, uint) {\n        return (coordinates.x, coordinates.y);\n    }\n\n    function getCapa() public view returns(uint){\n        return capa;\n    }\n\n    function useCapaInNextInterval(uint _value) public returns(uint _free){\n        require(msg.sender == address(home), \"No permission\");\n        require(usedCapaInInterval[home.getNextInterval()] + _value <= capa, \"No capacity left\");\n        usedCapaInInterval[home.getNextInterval()] += _value;\n        return usedCapaInInterval[home.getNextInterval()];\n    }\n\n    function getUnusedCapaInNextInterval() public view returns(uint _free) {\n        return capa - usedCapaInInterval[home.getNextInterval()];\n    }\n\n    function setLastClaimedToNow() public{\n        lastClaimed = home.getActualInterval();\n    }\n\n    function getNbrOfClaims() public view returns(uint value) {\n        value = (now - lastClaimed) / home.getInterval();\n    }\n\n    function claim() public view returns(uint value){\n        uint interval = home.getInterval();\n        uint notClaimedIntervals = (now - lastClaimed) / interval;\n        for(uint i = 0; i < notClaimedIntervals; i++) {\n            value += usedCapaInInterval[lastClaimed + notClaimedIntervals * interval] * home.getTokenForOneCapacity();\n            value += home.getPauschale();\n        }\n\n    }\n}\n\ncontract ERC20Interface {\n\n    uint256 public totalSupply;\n\n    function balanceOf(address _owner) public view returns (uint256 balance);\n\n    function transfer(address _to, uint256 _value) public returns (bool success);\n\n    function transferFrom(address _from, address _to, uint256 _value) public returns (bool success);\n\n    function approve(address _spender, uint256 _value) public returns (bool success);\n\n    function allowance(address _owner, address _spender) public view returns (uint256 remaining);\n\n    event Transfer(address indexed _from, address indexed _to, uint256 _value);\n\n    event Approval(address indexed _owner, address indexed _spender, uint256 _value);\n\n}\n\n\ncontract TokenBase is ERC20Interface {\n\n    string public constant NAME = \"BatterChain\";\n\n    string public constant SYMBOL = \"BAC\";\n\n    uint256 public constant INITIAL_AMOUNT = 100000;\n\n    address public owner;\n\n    mapping (address => uint256) public balances;\n\n    mapping (address => mapping (address => uint256)) allowed;\n\n    constructor() public {\n        totalSupply = INITIAL_AMOUNT;\n        balances[msg.sender] = INITIAL_AMOUNT;\n        owner = msg.sender;\n    }\n\n    function balanceOf(address _owner) public view returns (uint256 balance) {\n        return balances[_owner];\n    }\n\n    function giveTokenFromTo(address _to, uint _value) public{\n        require(msg.sender == owner, \"No permission!\");\n        balances[owner] -= _value;\n        balances[_to] += _value;\n    }\n\n    function transfer(address _to, uint256 _value) public returns (bool success) {\n\n        require(balances[msg.sender] >= _value, \"Sender has not enought Token\");\n\n        balances[msg.sender] -= _value;\n        balances[_to] += _value;\n\n        emit Transfer(msg.sender, _to, _value);\n        return true;\n    }\n\n    function transferFrom(address _from, address _to, uint256 _value) public returns (bool success) {\n        uint256 allowance = allowed[_from][_to];\n        require(balances[_from] >= _value, \"Sender has not enought Token\");\n        require(allowance >= _value, \"There is no allowance for this value\");\n\n        balances[_to] += _value;\n        balances[_from] -= _value;\n        allowed[_from][_to] -= _value;\n\n        emit Transfer(_from, _to, _value);\n        return true;\n    }\n\n    function approve(address _spender, uint256 _value) public returns (bool success) {\n        allowed[msg.sender][_spender] = _value;\n\n        emit Approval(msg.sender, _spender, _value);\n        return true;\n    }\n\n    function allowance(address _owner, address _spender) public view returns (uint256 remaining) {\n        return allowed[_owner][_spender];\n    }\n\n    function addToken(uint _value) public {\n        require(owner == msg.sender, \"No Access!\");\n        totalSupply +=  _value;\n        balances[owner] += _value;\n    }\n}\n",
  "sourcePath": "/Users/matthiasbabel/git/ht/peer/contracts/Contract.sol",
  "compiler": {
    "name": "solc",
    "version": "0.4.24+commit.e67f0147.Emscripten.clang"
  },
  "schemaVersion": "2.0.1",
  "updatedAt": "2018-12-17T15:27:21.562Z"
}