{
  "contractName": "VirtualBattery",
  "abi": [
    {
      "constant": true,
      "inputs": [],
      "name": "provider",
      "outputs": [
        {
          "name": "",
          "type": "address"
        }
      ],
      "payable": false,
      "stateMutability": "view",
      "type": "function",
      "signature": "0x085d4883"
    },
    {
      "constant": true,
      "inputs": [
        {
          "name": "",
          "type": "address"
        }
      ],
      "name": "personalStorage",
      "outputs": [
        {
          "name": "",
          "type": "address"
        }
      ],
      "payable": false,
      "stateMutability": "view",
      "type": "function",
      "signature": "0x5707635f"
    },
    {
      "constant": true,
      "inputs": [],
      "name": "capacityInToken",
      "outputs": [
        {
          "name": "",
          "type": "uint256"
        }
      ],
      "payable": false,
      "stateMutability": "view",
      "type": "function",
      "signature": "0xb490f615"
    },
    {
      "constant": true,
      "inputs": [],
      "name": "tokenBase",
      "outputs": [
        {
          "name": "",
          "type": "address"
        }
      ],
      "payable": false,
      "stateMutability": "view",
      "type": "function",
      "signature": "0xb61daaee"
    },
    {
      "constant": true,
      "inputs": [
        {
          "name": "",
          "type": "uint256"
        }
      ],
      "name": "storages",
      "outputs": [
        {
          "name": "",
          "type": "address"
        }
      ],
      "payable": false,
      "stateMutability": "view",
      "type": "function",
      "signature": "0xed363fdc"
    },
    {
      "constant": true,
      "inputs": [],
      "name": "intervalLength",
      "outputs": [
        {
          "name": "",
          "type": "uint256"
        }
      ],
      "payable": false,
      "stateMutability": "view",
      "type": "function",
      "signature": "0xff0b3fc5"
    },
    {
      "inputs": [],
      "payable": false,
      "stateMutability": "nonpayable",
      "type": "constructor",
      "signature": "constructor"
    },
    {
      "anonymous": false,
      "inputs": [
        {
          "indexed": true,
          "name": "_address",
          "type": "address"
        },
        {
          "indexed": false,
          "name": "_capacity",
          "type": "uint256"
        }
      ],
      "name": "ChangeCapacity",
      "type": "event",
      "signature": "0xf6b6651c98f0529db1b231d00ac036684f95cd24d11dfb6f8173ec61e06ef577"
    },
    {
      "constant": false,
      "inputs": [
        {
          "name": "_x",
          "type": "uint256"
        },
        {
          "name": "_y",
          "type": "uint256"
        },
        {
          "name": "_capacity",
          "type": "uint256"
        }
      ],
      "name": "newStorage",
      "outputs": [
        {
          "name": "",
          "type": "address"
        }
      ],
      "payable": false,
      "stateMutability": "nonpayable",
      "type": "function",
      "signature": "0x43d050af"
    },
    {
      "constant": false,
      "inputs": [
        {
          "name": "_value",
          "type": "uint256"
        }
      ],
      "name": "setCapacityInToken",
      "outputs": [
        {
          "name": "",
          "type": "bool"
        }
      ],
      "payable": false,
      "stateMutability": "nonpayable",
      "type": "function",
      "signature": "0xd0f9dca5"
    },
    {
      "constant": true,
      "inputs": [],
      "name": "getStorageArray",
      "outputs": [
        {
          "name": "",
          "type": "address[]"
        }
      ],
      "payable": false,
      "stateMutability": "view",
      "type": "function",
      "signature": "0x25cc66f5"
    },
    {
      "constant": true,
      "inputs": [],
      "name": "getCurrentInterval",
      "outputs": [
        {
          "name": "",
          "type": "uint256"
        }
      ],
      "payable": false,
      "stateMutability": "view",
      "type": "function",
      "signature": "0x44e43c98"
    },
    {
      "constant": true,
      "inputs": [],
      "name": "getNextInterval",
      "outputs": [
        {
          "name": "",
          "type": "uint256"
        }
      ],
      "payable": false,
      "stateMutability": "view",
      "type": "function",
      "signature": "0xfbd3f7bd"
    },
    {
      "constant": true,
      "inputs": [],
      "name": "getStorages",
      "outputs": [
        {
          "name": "",
          "type": "address[]"
        }
      ],
      "payable": false,
      "stateMutability": "view",
      "type": "function",
      "signature": "0x57778099"
    },
    {
      "constant": false,
      "inputs": [
        {
          "name": "_value",
          "type": "uint256"
        }
      ],
      "name": "setCapacity",
      "outputs": [
        {
          "name": "",
          "type": "bool"
        }
      ],
      "payable": false,
      "stateMutability": "nonpayable",
      "type": "function",
      "signature": "0x91915ef8"
    }
  ],
  "bytecode": "0x6080604052601e600455600160055534801561001a57600080fd5b50336000806101000a81548173ffffffffffffffffffffffffffffffffffffffff021916908373ffffffffffffffffffffffffffffffffffffffff1602179055506100636100c5565b604051809103906000f08015801561007f573d6000803e3d6000fd5b50600160006101000a81548173ffffffffffffffffffffffffffffffffffffffff021916908373ffffffffffffffffffffffffffffffffffffffff1602179055506100d5565b604051611af080611eed83390190565b611e09806100e46000396000f3fe6080604052600436106100c5576000357c0100000000000000000000000000000000000000000000000000000000900463ffffffff168063085d4883146100ca57806325cc66f51461012157806343d050af1461018d57806344e43c981461021c5780635707635f1461024757806357778099146102d857806391915ef814610344578063b490f61514610397578063b61daaee146103c2578063d0f9dca514610419578063ed363fdc1461046c578063fbd3f7bd146104e7578063ff0b3fc514610512575b600080fd5b3480156100d657600080fd5b506100df61053d565b604051808273ffffffffffffffffffffffffffffffffffffffff1673ffffffffffffffffffffffffffffffffffffffff16815260200191505060405180910390f35b34801561012d57600080fd5b50610136610562565b6040518080602001828103825283818151815260200191508051906020019060200280838360005b8381101561017957808201518184015260208101905061015e565b505050509050019250505060405180910390f35b34801561019957600080fd5b506101da600480360360608110156101b057600080fd5b810190808035906020019092919080359060200190929190803590602001909291905050506105f0565b604051808273ffffffffffffffffffffffffffffffffffffffff1673ffffffffffffffffffffffffffffffffffffffff16815260200191505060405180910390f35b34801561022857600080fd5b50610231610840565b6040518082815260200191505060405180910390f35b34801561025357600080fd5b506102966004803603602081101561026a57600080fd5b81019080803573ffffffffffffffffffffffffffffffffffffffff169060200190929190505050610857565b604051808273ffffffffffffffffffffffffffffffffffffffff1673ffffffffffffffffffffffffffffffffffffffff16815260200191505060405180910390f35b3480156102e457600080fd5b506102ed61088a565b6040518080602001828103825283818151815260200191508051906020019060200280838360005b83811015610330578082015181840152602081019050610315565b505050509050019250505060405180910390f35b34801561035057600080fd5b5061037d6004803603602081101561036757600080fd5b8101908080359060200190929190505050610918565b604051808215151515815260200191505060405180910390f35b3480156103a357600080fd5b506103ac610bda565b6040518082815260200191505060405180910390f35b3480156103ce57600080fd5b506103d7610be0565b604051808273ffffffffffffffffffffffffffffffffffffffff1673ffffffffffffffffffffffffffffffffffffffff16815260200191505060405180910390f35b34801561042557600080fd5b506104526004803603602081101561043c57600080fd5b8101908080359060200190929190505050610c06565b604051808215151515815260200191505060405180910390f35b34801561047857600080fd5b506104a56004803603602081101561048f57600080fd5b8101908080359060200190929190505050610cdc565b604051808273ffffffffffffffffffffffffffffffffffffffff1673ffffffffffffffffffffffffffffffffffffffff16815260200191505060405180910390f35b3480156104f357600080fd5b506104fc610d1a565b6040518082815260200191505060405180910390f35b34801561051e57600080fd5b50610527610d35565b6040518082815260200191505060405180910390f35b6000809054906101000a900473ffffffffffffffffffffffffffffffffffffffff1681565b606060028054806020026020016040519081016040528092919081815260200182805480156105e657602002820191906000526020600020905b8160009054906101000a900473ffffffffffffffffffffffffffffffffffffffff1673ffffffffffffffffffffffffffffffffffffffff168152602001906001019080831161059c575b5050505050905090565b60008073ffffffffffffffffffffffffffffffffffffffff16600360003373ffffffffffffffffffffffffffffffffffffffff1673ffffffffffffffffffffffffffffffffffffffff16815260200190815260200160002060009054906101000a900473ffffffffffffffffffffffffffffffffffffffff1673ffffffffffffffffffffffffffffffffffffffff1614151561068b57600080fd5b600033858585610699610d3b565b808573ffffffffffffffffffffffffffffffffffffffff1673ffffffffffffffffffffffffffffffffffffffff168152602001848152602001838152602001828152602001945050505050604051809103906000f080158015610700573d6000803e3d6000fd5b50905060028190806001815401808255809150509060018203906000526020600020016000909192909190916101000a81548173ffffffffffffffffffffffffffffffffffffffff021916908373ffffffffffffffffffffffffffffffffffffffff1602179055505080600360003373ffffffffffffffffffffffffffffffffffffffff1673ffffffffffffffffffffffffffffffffffffffff16815260200190815260200160002060006101000a81548173ffffffffffffffffffffffffffffffffffffffff021916908373ffffffffffffffffffffffffffffffffffffffff1602179055508073ffffffffffffffffffffffffffffffffffffffff167ff6b6651c98f0529db1b231d00ac036684f95cd24d11dfb6f8173ec61e06ef577846040518082815260200191505060405180910390a2809150509392505050565b60006004544281151561084f57fe5b064203905090565b60036020528060005260406000206000915054906101000a900473ffffffffffffffffffffffffffffffffffffffff1681565b6060600280548060200260200160405190810160405280929190818152602001828054801561090e57602002820191906000526020600020905b8160009054906101000a900473ffffffffffffffffffffffffffffffffffffffff1673ffffffffffffffffffffffffffffffffffffffff16815260200190600101908083116108c4575b5050505050905090565b60008073ffffffffffffffffffffffffffffffffffffffff16600360003373ffffffffffffffffffffffffffffffffffffffff1673ffffffffffffffffffffffffffffffffffffffff16815260200190815260200160002060009054906101000a900473ffffffffffffffffffffffffffffffffffffffff1673ffffffffffffffffffffffffffffffffffffffff1614151515610a1d576040517f08c379a00000000000000000000000000000000000000000000000000000000081526004018080602001828103825260138152602001807f5468657265206973206e6f2053746f726167650000000000000000000000000081525060200191505060405180910390fd5b600360003373ffffffffffffffffffffffffffffffffffffffff1673ffffffffffffffffffffffffffffffffffffffff16815260200190815260200160002060009054906101000a900473ffffffffffffffffffffffffffffffffffffffff1673ffffffffffffffffffffffffffffffffffffffff167ff6b6651c98f0529db1b231d00ac036684f95cd24d11dfb6f8173ec61e06ef577836040518082815260200191505060405180910390a2600360003373ffffffffffffffffffffffffffffffffffffffff1673ffffffffffffffffffffffffffffffffffffffff16815260200190815260200160002060009054906101000a900473ffffffffffffffffffffffffffffffffffffffff1673ffffffffffffffffffffffffffffffffffffffff166391915ef8836040518263ffffffff167c010000000000000000000000000000000000000000000000000000000002815260040180828152602001915050602060405180830381600087803b158015610b9857600080fd5b505af1158015610bac573d6000803e3d6000fd5b505050506040513d6020811015610bc257600080fd5b81019080805190602001909291905050509050919050565b60055481565b600160009054906101000a900473ffffffffffffffffffffffffffffffffffffffff1681565b60008060009054906101000a900473ffffffffffffffffffffffffffffffffffffffff1673ffffffffffffffffffffffffffffffffffffffff163373ffffffffffffffffffffffffffffffffffffffff16141515610ccc576040517f08c379a000000000000000000000000000000000000000000000000000000000815260040180806020018281038252600d8152602001807f4e6f207065726d697373696f6e0000000000000000000000000000000000000081525060200191505060405180910390fd5b8160058190555060019050919050565b600281815481101515610ceb57fe5b906000526020600020016000915054906101000a900473ffffffffffffffffffffffffffffffffffffffff1681565b600060045460045442811515610d2c57fe5b06420301905090565b60045481565b60405161109280610d4c8339019056fe6080604052600360045534801561001557600080fd5b506040516080806110928339810180604052608081101561003557600080fd5b8101908080519060200190929190805190602001909291908051906020019092919080519060200190929190505050336000806101000a81548173ffffffffffffffffffffffffffffffffffffffff021916908373ffffffffffffffffffffffffffffffffffffffff16021790555083600160006101000a81548173ffffffffffffffffffffffffffffffffffffffff021916908373ffffffffffffffffffffffffffffffffffffffff1602179055508260076000018190555081600760010181905550806003819055503373ffffffffffffffffffffffffffffffffffffffff1663085d48836040518163ffffffff167c010000000000000000000000000000000000000000000000000000000002815260040160206040518083038186803b15801561016257600080fd5b505afa158015610176573d6000803e3d6000fd5b505050506040513d602081101561018c57600080fd5b8101908080519060200190929190505050600260006101000a81548173ffffffffffffffffffffffffffffffffffffffff021916908373ffffffffffffffffffffffffffffffffffffffff1602179055503373ffffffffffffffffffffffffffffffffffffffff1663b61daaee6040518163ffffffff167c010000000000000000000000000000000000000000000000000000000002815260040160206040518083038186803b15801561023f57600080fd5b505afa158015610253573d6000803e3d6000fd5b505050506040513d602081101561026957600080fd5b8101908080519060200190929190505050600560006101000a81548173ffffffffffffffffffffffffffffffffffffffff021916908373ffffffffffffffffffffffffffffffffffffffff16021790555050505050610dc5806102cd6000396000f3fe6080604052600436106100af576000357c0100000000000000000000000000000000000000000000000000000000900463ffffffff16806302d05d3f146100b4578063085d48831461010b5780634decae40146101625780635cfc1a51146101b15780637d3827a5146101dc5780638da5cb5b1461023557806391915ef81461028c578063a4b889b7146102df578063abc6fd0b14610311578063c34ec2341461033c578063f613bd9814610367575b600080fd5b3480156100c057600080fd5b506100c96103b6565b604051808273ffffffffffffffffffffffffffffffffffffffff1673ffffffffffffffffffffffffffffffffffffffff16815260200191505060405180910390f35b34801561011757600080fd5b506101206103db565b604051808273ffffffffffffffffffffffffffffffffffffffff1673ffffffffffffffffffffffffffffffffffffffff16815260200191505060405180910390f35b34801561016e57600080fd5b5061019b6004803603602081101561018557600080fd5b8101908080359060200190929190505050610401565b6040518082815260200191505060405180910390f35b3480156101bd57600080fd5b506101c661044a565b6040518082815260200191505060405180910390f35b3480156101e857600080fd5b5061021f600480360360408110156101ff57600080fd5b810190808035906020019092919080359060200190929190505050610450565b6040518082815260200191505060405180910390f35b34801561024157600080fd5b5061024a610988565b604051808273ffffffffffffffffffffffffffffffffffffffff1673ffffffffffffffffffffffffffffffffffffffff16815260200191505060405180910390f35b34801561029857600080fd5b506102c5600480360360208110156102af57600080fd5b81019080803590602001909291905050506109ae565b604051808215151515815260200191505060405180910390f35b3480156102eb57600080fd5b506102f4610a84565b604051808381526020018281526020019250505060405180910390f35b34801561031d57600080fd5b50610326610a96565b6040518082815260200191505060405180910390f35b34801561034857600080fd5b50610351610d7b565b6040518082815260200191505060405180910390f35b34801561037357600080fd5b506103a06004803603602081101561038a57600080fd5b8101908080359060200190929190505050610d81565b6040518082815260200191505060405180910390f35b6000809054906101000a900473ffffffffffffffffffffffffffffffffffffffff1681565b600260009054906101000a900473ffffffffffffffffffffffffffffffffffffffff1681565b6000600660008381526020019081526020016000205460035411151561042a5760009050610445565b60066000838152602001908152602001600020546003540390505b919050565b60035481565b60004283101515156104ca576040517f08c379a000000000000000000000000000000000000000000000000000000000815260040180806020018281038252600d8152602001807f4974277320746f6f206c6174650000000000000000000000000000000000000081525060200191505060405180910390fd5b816104d484610401565b1015151561054a576040517f08c379a00000000000000000000000000000000000000000000000000000000081526004018080602001828103825260118152602001807f4e6f206361706163697479206c6566742100000000000000000000000000000081525060200191505060405180910390fd5b600560009054906101000a900473ffffffffffffffffffffffffffffffffffffffff1673ffffffffffffffffffffffffffffffffffffffff163373ffffffffffffffffffffffffffffffffffffffff1614151561060f576040517f08c379a000000000000000000000000000000000000000000000000000000000815260040180806020018281038252600d8152602001807f4e6f7420746f6b656e426173650000000000000000000000000000000000000081525060200191505060405180910390fd5b826004546000809054906101000a900473ffffffffffffffffffffffffffffffffffffffff1673ffffffffffffffffffffffffffffffffffffffff1663ff0b3fc56040518163ffffffff167c010000000000000000000000000000000000000000000000000000000002815260040160206040518083038186803b15801561069657600080fd5b505afa1580156106aa573d6000803e3d6000fd5b505050506040513d60208110156106c057600080fd5b8101908080519060200190929190505050026000809054906101000a900473ffffffffffffffffffffffffffffffffffffffff1673ffffffffffffffffffffffffffffffffffffffff166344e43c986040518163ffffffff167c010000000000000000000000000000000000000000000000000000000002815260040160206040518083038186803b15801561075557600080fd5b505afa158015610769573d6000803e3d6000fd5b505050506040513d602081101561077f57600080fd5b81019080805190602001909291905050500110151515610807576040517f08c379a000000000000000000000000000000000000000000000000000000000815260040180806020018281038252600e8152602001807f4974277320746f6f206561726c7900000000000000000000000000000000000081525060200191505060405180910390fd5b60008060009054906101000a900473ffffffffffffffffffffffffffffffffffffffff1673ffffffffffffffffffffffffffffffffffffffff1663ff0b3fc56040518163ffffffff167c010000000000000000000000000000000000000000000000000000000002815260040160206040518083038186803b15801561088c57600080fd5b505afa1580156108a0573d6000803e3d6000fd5b505050506040513d60208110156108b657600080fd5b8101908080519060200190929190505050848115156108d157fe5b06141515610947576040517f08c379a00000000000000000000000000000000000000000000000000000000081526004018080602001828103825260178152602001807f4e6f207065726d69737369626c6520696e74657276616c00000000000000000081525060200191505060405180910390fd5b816006600085815260200190815260200160002060008282540192505081905550600660008481526020019081526020016000205460035403905092915050565b600160009054906101000a900473ffffffffffffffffffffffffffffffffffffffff1681565b60008060009054906101000a900473ffffffffffffffffffffffffffffffffffffffff1673ffffffffffffffffffffffffffffffffffffffff163373ffffffffffffffffffffffffffffffffffffffff16141515610a74576040517f08c379a000000000000000000000000000000000000000000000000000000000815260040180806020018281038252600d8152602001807f4e6f207065726d697373696f6e0000000000000000000000000000000000000081525060200191505060405180910390fd5b8160038190555060019050919050565b60078060000154908060010154905082565b6000600160009054906101000a900473ffffffffffffffffffffffffffffffffffffffff1673ffffffffffffffffffffffffffffffffffffffff163373ffffffffffffffffffffffffffffffffffffffff16141515610b5d576040517f08c379a00000000000000000000000000000000000000000000000000000000081526004018080602001828103825260098152602001807f4e6f74206f776e6572000000000000000000000000000000000000000000000081525060200191505060405180910390fd5b600560009054906101000a900473ffffffffffffffffffffffffffffffffffffffff1673ffffffffffffffffffffffffffffffffffffffff166370a08231306040518263ffffffff167c0100000000000000000000000000000000000000000000000000000000028152600401808273ffffffffffffffffffffffffffffffffffffffff1673ffffffffffffffffffffffffffffffffffffffff16815260200191505060206040518083038186803b158015610c1857600080fd5b505afa158015610c2c573d6000803e3d6000fd5b505050506040513d6020811015610c4257600080fd5b81019080805190602001909291905050509050600560009054906101000a900473ffffffffffffffffffffffffffffffffffffffff1673ffffffffffffffffffffffffffffffffffffffff1663a9059cbb600160009054906101000a900473ffffffffffffffffffffffffffffffffffffffff16836040518363ffffffff167c0100000000000000000000000000000000000000000000000000000000028152600401808373ffffffffffffffffffffffffffffffffffffffff1673ffffffffffffffffffffffffffffffffffffffff16815260200182815260200192505050602060405180830381600087803b158015610d3c57600080fd5b505af1158015610d50573d6000803e3d6000fd5b505050506040513d6020811015610d6657600080fd5b81019080805190602001909291905050505090565b60045481565b6006602052806000526040600020600091509050548156fea165627a7a72305820fa7ac6436b7dc9c8a6fc33a0e4bf1bfdc769926c1df47b0005666032d384b0c80029a165627a7a7230582068b6bea1eb44da502df12888c8da0b89e0040a9dc8408c7b5481e8cd50a499bc0029608060405234801561001057600080fd5b506c71989183527a1c5d3c400000006002819055506c71989183527a1c5d3c400000006000803073ffffffffffffffffffffffffffffffffffffffff1673ffffffffffffffffffffffffffffffffffffffff1681526020019081526020016000208190555033600360006101000a81548173ffffffffffffffffffffffffffffffffffffffff021916908373ffffffffffffffffffffffffffffffffffffffff160217905550611a2b806100c56000396000f3fe6080604052600436106100fc576000357c0100000000000000000000000000000000000000000000000000000000900463ffffffff16806302d05d3f146100fe578063095ea7b31461015557806313982e37146101c857806318160ddd146101f357806323b872dd1461021e57806327e235e3146102b15780632e0f2625146103165780633bb6a5a81461034757806370a08231146103725780639679dd7d146103d7578063a3f4df7e14610402578063a6f2ae3a14610492578063a9059cbb146104b0578063ad93f3d414610523578063b128d23314610590578063dd62ed3e146105df578063f76f8d7814610664578063f79253ee146106f4575b005b34801561010a57600080fd5b5061011361071f565b604051808273ffffffffffffffffffffffffffffffffffffffff1673ffffffffffffffffffffffffffffffffffffffff16815260200191505060405180910390f35b34801561016157600080fd5b506101ae6004803603604081101561017857600080fd5b81019080803573ffffffffffffffffffffffffffffffffffffffff16906020019092919080359060200190929190505050610745565b604051808215151515815260200191505060405180910390f35b3480156101d457600080fd5b506101dd610837565b6040518082815260200191505060405180910390f35b3480156101ff57600080fd5b50610208610848565b6040518082815260200191505060405180910390f35b34801561022a57600080fd5b506102976004803603606081101561024157600080fd5b81019080803573ffffffffffffffffffffffffffffffffffffffff169060200190929190803573ffffffffffffffffffffffffffffffffffffffff1690602001909291908035906020019092919050505061084e565b604051808215151515815260200191505060405180910390f35b3480156102bd57600080fd5b50610300600480360360208110156102d457600080fd5b81019080803573ffffffffffffffffffffffffffffffffffffffff169060200190929190505050610bad565b6040518082815260200191505060405180910390f35b34801561032257600080fd5b5061032b610bc5565b604051808260ff1660ff16815260200191505060405180910390f35b34801561035357600080fd5b5061035c610bca565b6040518082815260200191505060405180910390f35b34801561037e57600080fd5b506103c16004803603602081101561039557600080fd5b81019080803573ffffffffffffffffffffffffffffffffffffffff169060200190929190505050610bd9565b6040518082815260200191505060405180910390f35b3480156103e357600080fd5b506103ec610c21565b6040518082815260200191505060405180910390f35b34801561040e57600080fd5b50610417610c67565b6040518080602001828103825283818151815260200191508051906020019080838360005b8381101561045757808201518184015260208101905061043c565b50505050905090810190601f1680156104845780820380516001836020036101000a031916815260200191505b509250505060405180910390f35b61049a610ca0565b6040518082815260200191505060405180910390f35b3480156104bc57600080fd5b50610509600480360360408110156104d357600080fd5b81019080803573ffffffffffffffffffffffffffffffffffffffff16906020019092919080359060200190929190505050610dfc565b604051808215151515815260200191505060405180910390f35b34801561052f57600080fd5b5061057a6004803603608081101561054657600080fd5b8101908080359060200190929190803590602001909291908035906020019092919080359060200190929190505050610fb1565b6040518082815260200191505060405180910390f35b34801561059c57600080fd5b506105c9600480360360208110156105b357600080fd5b81019080803590602001909291905050506114de565b6040518082815260200191505060405180910390f35b3480156105eb57600080fd5b5061064e6004803603604081101561060257600080fd5b81019080803573ffffffffffffffffffffffffffffffffffffffff169060200190929190803573ffffffffffffffffffffffffffffffffffffffff169060200190929190505050611590565b6040518082815260200191505060405180910390f35b34801561067057600080fd5b50610679611617565b6040518080602001828103825283818151815260200191508051906020019080838360005b838110156106b957808201518184015260208101905061069e565b50505050905090810190601f1680156106e65780820380516001836020036101000a031916815260200191505b509250505060405180910390f35b34801561070057600080fd5b50610709611650565b6040518082815260200191505060405180910390f35b600360009054906101000a900473ffffffffffffffffffffffffffffffffffffffff1681565b600081600160003373ffffffffffffffffffffffffffffffffffffffff1673ffffffffffffffffffffffffffffffffffffffff16815260200190815260200160002060008573ffffffffffffffffffffffffffffffffffffffff1673ffffffffffffffffffffffffffffffffffffffff168152602001908152602001600020819055508273ffffffffffffffffffffffffffffffffffffffff163373ffffffffffffffffffffffffffffffffffffffff167f8c5be1e5ebec7d5bd14f71427d1e84f3dd0314c0f7b2291e5b200ac8c7c3b925846040518082815260200191505060405180910390a36001905092915050565b6c71989183527a1c5d3c4000000081565b60025481565b600080600160008673ffffffffffffffffffffffffffffffffffffffff1673ffffffffffffffffffffffffffffffffffffffff16815260200190815260200160002060008573ffffffffffffffffffffffffffffffffffffffff1673ffffffffffffffffffffffffffffffffffffffff168152602001908152602001600020549050826000808773ffffffffffffffffffffffffffffffffffffffff1673ffffffffffffffffffffffffffffffffffffffff1681526020019081526020016000205410151515610986576040517f08c379a000000000000000000000000000000000000000000000000000000000815260040180806020018281038252601b8152602001807f53656e64657220686173206e6f7420656e6f75676820546f6b656e000000000081525060200191505060405180910390fd5b828110151515610a24576040517f08c379a00000000000000000000000000000000000000000000000000000000081526004018080602001828103825260248152602001807f5468657265206973206e6f20616c6c6f77616e636520666f722074686973207681526020017f616c75650000000000000000000000000000000000000000000000000000000081525060400191505060405180910390fd5b826000808673ffffffffffffffffffffffffffffffffffffffff1673ffffffffffffffffffffffffffffffffffffffff16815260200190815260200160002060008282540192505081905550826000808773ffffffffffffffffffffffffffffffffffffffff1673ffffffffffffffffffffffffffffffffffffffff1681526020019081526020016000206000828254039250508190555082600160008773ffffffffffffffffffffffffffffffffffffffff1673ffffffffffffffffffffffffffffffffffffffff16815260200190815260200160002060008673ffffffffffffffffffffffffffffffffffffffff1673ffffffffffffffffffffffffffffffffffffffff16815260200190815260200160002060008282540392505081905550828473ffffffffffffffffffffffffffffffffffffffff168673ffffffffffffffffffffffffffffffffffffffff167fddf252ad1be2c89b69c2b068fc378daa952ba7f163c4a11628f55a4df523b3ef60405160405180910390a460019150509392505050565b60006020528060005260406000206000915090505481565b600081565b600066038d7ea4c68000905090565b60008060008373ffffffffffffffffffffffffffffffffffffffff1673ffffffffffffffffffffffffffffffffffffffff168152602001908152602001600020549050919050565b60008060003073ffffffffffffffffffffffffffffffffffffffff1673ffffffffffffffffffffffffffffffffffffffff16815260200190815260200160002054905090565b6040805190810160405280600f81526020017f456e6572436861696e20546f6b656e000000000000000000000000000000000081525081565b600066038d7ea4c6800034811515610cb457fe5b049050600066038d7ea4c68000820234039050600081141515610d19573373ffffffffffffffffffffffffffffffffffffffff166108fc829081150290604051600060405180830381858888f19350505050158015610d17573d6000803e3d6000fd5b505b3073ffffffffffffffffffffffffffffffffffffffff1663a9059cbb33846040518363ffffffff167c0100000000000000000000000000000000000000000000000000000000028152600401808373ffffffffffffffffffffffffffffffffffffffff1673ffffffffffffffffffffffffffffffffffffffff16815260200182815260200192505050602060405180830381600087803b158015610dbc57600080fd5b505af1158015610dd0573d6000803e3d6000fd5b505050506040513d6020811015610de657600080fd5b8101908080519060200190929190505050505090565b6000816000803373ffffffffffffffffffffffffffffffffffffffff1673ffffffffffffffffffffffffffffffffffffffff1681526020019081526020016000205410151515610eb4576040517f08c379a000000000000000000000000000000000000000000000000000000000815260040180806020018281038252601b8152602001807f53656e64657220686173206e6f7420656e6f75676820546f6b656e000000000081525060200191505060405180910390fd5b816000803373ffffffffffffffffffffffffffffffffffffffff1673ffffffffffffffffffffffffffffffffffffffff16815260200190815260200160002060008282540392505081905550816000808573ffffffffffffffffffffffffffffffffffffffff1673ffffffffffffffffffffffffffffffffffffffff16815260200190815260200160002060008282540192505081905550818373ffffffffffffffffffffffffffffffffffffffff163373ffffffffffffffffffffffffffffffffffffffff167fddf252ad1be2c89b69c2b068fc378daa952ba7f163c4a11628f55a4df523b3ef60405160405180910390a46001905092915050565b60008060007fffffffffffffffffffffffffffffffffffffffffffffffffffffffffffffffff90508392506060600360009054906101000a900473ffffffffffffffffffffffffffffffffffffffff1673ffffffffffffffffffffffffffffffffffffffff1663577780996040518163ffffffff167c010000000000000000000000000000000000000000000000000000000002815260040160006040518083038186803b15801561106257600080fd5b505afa158015611076573d6000803e3d6000fd5b505050506040513d6000823e3d601f19601f8201168201806040525060208110156110a057600080fd5b8101908080516401000000008111156110b857600080fd5b828101905060208101848111156110ce57600080fd5b81518560208202830111640100000000821117156110eb57600080fd5b5050929190505050905060008090505b815181101561130a576000828281518110151561111457fe5b9060200190602002015173ffffffffffffffffffffffffffffffffffffffff16634decae40896040518263ffffffff167c01000000000000000000000000000000000000000000000000000000000281526004018082815260200191505060206040518083038186803b15801561118a57600080fd5b505afa15801561119e573d6000803e3d6000fd5b505050506040513d60208110156111b457600080fd5b810190808051906020019092919050505011156112fd5760008090506000809050600080905084848151811015156111e857fe5b9060200190602002015173ffffffffffffffffffffffffffffffffffffffff1663a4b889b76040518163ffffffff167c0100000000000000000000000000000000000000000000000000000000028152600401604080518083038186803b15801561125257600080fd5b505afa158015611266573d6000803e3d6000fd5b505050506040513d604081101561127c57600080fd5b8101908080519060200190929190805190602001909291905050508093508194505050828c11156112b157828c0390506112b7565b8b830390505b818b11156112cb57818b03810190506112d3565b8a8203810190505b858110156112f95780955084848151811015156112ec57fe5b9060200190602002015196505b5050505b80806001019150506110fb565b50600073ffffffffffffffffffffffffffffffffffffffff168373ffffffffffffffffffffffffffffffffffffffff161415156114d357838373ffffffffffffffffffffffffffffffffffffffff16634decae40886040518263ffffffff167c01000000000000000000000000000000000000000000000000000000000281526004018082815260200191505060206040518083038186803b1580156113af57600080fd5b505afa1580156113c3573d6000803e3d6000fd5b505050506040513d60208110156113d957600080fd5b8101908080519060200190929190505050101515611406576113fc83878661165b565b50600093506114d2565b60008373ffffffffffffffffffffffffffffffffffffffff16634decae40886040518263ffffffff167c01000000000000000000000000000000000000000000000000000000000281526004018082815260200191505060206040518083038186803b15801561147557600080fd5b505afa158015611489573d6000803e3d6000fd5b505050506040513d602081101561149f57600080fd5b810190808051906020019092919050505090506114bd84888361165b565b5080850394506114cf89898988610fb1565b50505b5b505050949350505050565b60008060003373ffffffffffffffffffffffffffffffffffffffff1673ffffffffffffffffffffffffffffffffffffffff16815260200190815260200160002054821115151561152d57600080fd5b66038d7ea4c68000820290506115433083610dfc565b503373ffffffffffffffffffffffffffffffffffffffff166108fc829081150290604051600060405180830381858888f1935050505015801561158a573d6000803e3d6000fd5b50919050565b6000600160008473ffffffffffffffffffffffffffffffffffffffff1673ffffffffffffffffffffffffffffffffffffffff16815260200190815260200160002060008373ffffffffffffffffffffffffffffffffffffffff1673ffffffffffffffffffffffffffffffffffffffff16815260200190815260200160002054905092915050565b6040805190810160405280600381526020017f454354000000000000000000000000000000000000000000000000000000000081525081565b66038d7ea4c6800081565b60008082600360009054906101000a900473ffffffffffffffffffffffffffffffffffffffff1673ffffffffffffffffffffffffffffffffffffffff1663b490f6156040518163ffffffff167c010000000000000000000000000000000000000000000000000000000002815260040160206040518083038186803b1580156116e357600080fd5b505afa1580156116f7573d6000803e3d6000fd5b505050506040513d602081101561170d57600080fd5b8101908080519060200190929190505050029050806000803373ffffffffffffffffffffffffffffffffffffffff1673ffffffffffffffffffffffffffffffffffffffff16815260200190815260200160002054101515156117d7576040517f08c379a00000000000000000000000000000000000000000000000000000000081526004018080602001828103825260108152602001807f4e6f7420656e6f75676820746f6b656e0000000000000000000000000000000081525060200191505060405180910390fd5b600360009054906101000a900473ffffffffffffffffffffffffffffffffffffffff1673ffffffffffffffffffffffffffffffffffffffff1663085d48836040518163ffffffff167c010000000000000000000000000000000000000000000000000000000002815260040160206040518083038186803b15801561185b57600080fd5b505afa15801561186f573d6000803e3d6000fd5b505050506040513d602081101561188557600080fd5b810190808051906020019092919050505073ffffffffffffffffffffffffffffffffffffffff163373ffffffffffffffffffffffffffffffffffffffff16141515611938576040517f08c379a000000000000000000000000000000000000000000000000000000000815260040180806020018281038252600c8152602001807f4e6f742070726f7669646572000000000000000000000000000000000000000081525060200191505060405180910390fd5b8473ffffffffffffffffffffffffffffffffffffffff16637d3827a585856040518363ffffffff167c01000000000000000000000000000000000000000000000000000000000281526004018083815260200182815260200192505050602060405180830381600087803b1580156119af57600080fd5b505af11580156119c3573d6000803e3d6000fd5b505050506040513d60208110156119d957600080fd5b810190808051906020019092919050505091506119f68582610dfc565b5050939250505056fea165627a7a72305820051ee6899bddfa8d6846315aa480a18b7d6979d865d464aa7e9a4209ee8be7f10029",
  "source": "pragma solidity ^0.5.0;\n\n//Sowas wie service provided reinbringen\n\ncontract VirtualBattery {\n    address public provider;\n    TokenBase public tokenBase;\n    Storage[] public storages;\n    mapping(address => address) public personalStorage;\n    uint public intervalLength = 30;\n    uint public capacityInToken = 1;\n    event ChangeCapacity(address indexed _address, uint _capacity);\n    modifier onlyOwner() {\n        require(msg.sender == provider, \"No permission\");\n        _;\n    }\n    constructor() public {\n        provider = msg.sender;\n        tokenBase = new TokenBase();\n    }\n    //Bindet Batterie an virtuelle Batterie an, Jede von hier aus gespawnte Entitaet kann nur von dem hier vorhanden Provider bedient werden\n    function newStorage(uint _x, uint _y, uint _capacity) public returns(address) {\n        require(personalStorage[msg.sender] == address(0));\n        Storage tmp = new Storage(msg.sender, _x, _y, _capacity);\n        storages.push(tmp);\n        personalStorage[msg.sender] = address(tmp);\n        emit ChangeCapacity(address(tmp), _capacity);\n        return address(tmp);\n    }\n    //Kosten pro genutzter Kapazitaet\n    function setCapacityInToken(uint _value) public onlyOwner returns(bool) {\n        capacityInToken = _value;\n        return true;\n    }\n    function getStorageArray() public view returns(Storage[] memory) {\n      return storages;\n    }\n    //Intervall\n    function getCurrentInterval() public view returns(uint) {\n        return (now - (now % intervalLength));\n    }\n\n    function getNextInterval() public view returns(uint) {\n        return (now - (now % intervalLength)) + intervalLength;\n    }\n\n    function getStorages() public view returns(Storage[] memory) {\n        return storages;\n    }\n\n    function setCapacity(uint  _value) public returns(bool){\n        require(personalStorage[msg.sender] != address(0), \"There is no Storage\");\n        emit ChangeCapacity(personalStorage[msg.sender], _value);\n        return Storage(personalStorage[msg.sender]).setCapacity(_value);\n    }\n\n}\n\ncontract Storage {\n    address public creator;\n    address public owner;\n    address public provider;\n    uint public capacity;\n    uint public futureIntervals = 3;\n    TokenBase tokenBase;\n    mapping(uint => uint) public usedCapacityInInterval;\n    struct Coordinates {\n        uint x;\n        uint y;\n    }\n    Coordinates public coordinates;\n    modifier onlyOwner() {\n        require(msg.sender == owner, \"Not owner\" );\n        _;\n    }\n\n    constructor(address _owner, uint _x, uint _y, uint _capacity) public {\n        creator = msg.sender;\n        owner = _owner;\n        coordinates.x = _x;\n        coordinates.y = _y;\n        capacity = _capacity;\n        provider = VirtualBattery(msg.sender).provider();\n        tokenBase = VirtualBattery(msg.sender).tokenBase();\n    }\n\n    function useCapacityInInterval(uint _interval, uint _capacity) public returns(uint left){\n        require(_interval >= now, \"It's too late\");\n        require(capacityLeft(_interval) >= _capacity, \"No capacity left!\");\n        require(msg.sender == address(tokenBase), \"Not tokenBase\");\n        //Verhindert, dass zu weit in der Zukunft die Kapazitaet gebucht wird, damit Benutzer Herr ueber seine Batterie bleibt\n        require((VirtualBattery(creator).getCurrentInterval() + VirtualBattery(creator).intervalLength() * futureIntervals) >= _interval, \"It's too early\");\n        require((_interval % VirtualBattery(creator).intervalLength()) == 0, \"No permissible interval\");\n        usedCapacityInInterval[_interval] += _capacity;\n        return capacity - usedCapacityInInterval[_interval];\n    }\n\n    function setCapacity(uint _value) public returns(bool) {\n        require(msg.sender == creator, \"No permission\");\n        capacity = _value;\n        return true;\n    }\n\n    function disburse() public onlyOwner returns(uint value) {\n        value = tokenBase.balanceOf(address(this));\n        tokenBase.transfer(owner, value);\n    }\n\n    function capacityLeft(uint _interval) public view returns(uint) {\n        if(capacity <=  usedCapacityInInterval[_interval])\n            return 0;\n        return capacity - usedCapacityInInterval[_interval];\n    }\n\n\n\n}\n\ncontract TokenBase {\n    string public constant NAME = \"EnerChain Token\";\n    string public constant SYMBOL = \"ECT\";\n    uint8 public constant DECIMALS = 0;\n    uint256 public constant INITIAL_AMOUNT = 9000000000000000000000000000000;\n    uint256 constant public tokenInWei = 1000000000000000;\n    mapping (address => uint256) public balances;\n    mapping (address => mapping (address => uint256)) allowed;\n    uint public totalSupply;\n    event Transfer(address indexed _from, address indexed _to, uint indexed _value);\n    event Approval(address indexed _owner, address indexed _to, uint256 _value);\n    address public creator;\n\n    constructor() public {\n        totalSupply = INITIAL_AMOUNT;\n        balances[address(this)] = INITIAL_AMOUNT;\n        creator = msg.sender;\n    }\n\n    function findCapacity(uint _x, uint _y, uint _interval, uint _value) public returns(uint valueLeft){\n        Storage best;\n        uint shortest = uint(int(-1));\n        valueLeft = _value;\n        Storage[] memory storages = VirtualBattery(creator).getStorages();\n        for(uint i = 0; i < storages.length; i++) {\n            if(storages[i].capacityLeft(_interval) > 0) {\n                uint x = 0;\n                uint y = 0;\n                uint len = 0;\n                (x, y) = storages[i].coordinates();\n                //Abs\n                if(_x > x)\n                    len = _x - x;\n                else\n                    len = x - _x;\n                if(_y > y)\n                    len += _y - y;\n                else\n                    len += y - _y;\n                if(len < shortest){\n                    shortest = len;\n                    best = storages[i];\n                }\n            }\n        }\n        if(address(best) != address(0)){\n            if(best.capacityLeft(_interval) >= valueLeft) {\n               useCapacity(address(best), _interval, valueLeft);\n             valueLeft = 0;\n            }\n            else {\n                uint capacity = best.capacityLeft(_interval);\n                useCapacity(address(best), _interval, capacity);\n                valueLeft -= capacity;\n                findCapacity(_x, _y, _interval, valueLeft);\n            }\n        }\n    }\n    //Sicherung der Kapazitaet in einem Intervall\n    function useCapacity(address _storage, uint _interval, uint _value) internal returns(uint capacityLeft) {\n        uint cost = VirtualBattery(creator).capacityInToken() * _value;\n        require(balances[msg.sender] >= cost, \"Not enough token\");\n        require(msg.sender == VirtualBattery(creator).provider(), \"Not provider\");\n        capacityLeft = Storage(_storage).useCapacityInInterval(_interval, _value);\n        transfer(_storage, cost);\n\n    }\n\n    //Token kaufen\n    function buy() public payable returns(uint amount) {\n        amount = (msg.value/tokenInWei);\n        uint256 rest = msg.value - (amount * tokenInWei);\n        if(rest != 0) {\n            msg.sender.transfer(rest);\n        }\n        this.transfer(msg.sender, amount);\n    }\n\n    function balanceOf(address _owner) public view returns (uint256 balance) {\n        return balances[_owner];\n    }\n\n    function transfer(address _to, uint256 _value) public returns (bool success) {\n        require(balances[msg.sender] >= _value, \"Sender has not enough Token\");\n        balances[msg.sender] -= _value;\n        balances[_to] += _value;\n        emit Transfer(msg.sender, _to, _value);\n        return true;\n    }\n\n    function transferFrom(address _from, address _to, uint256 _value) public returns (bool success) {\n        uint256 allowance = allowed[_from][_to];\n        require(balances[_from] >= _value, \"Sender has not enough Token\");\n        require(allowance >= _value, \"There is no allowance for this value\");\n        balances[_to] += _value;\n        balances[_from] -= _value;\n        allowed[_from][_to] -= _value;\n        emit Transfer(_from, _to, _value);\n        return true;\n    }\n\n    function approve(address _spender, uint256 _value) public returns (bool success) {\n        allowed[msg.sender][_spender] = _value;\n        emit Approval(msg.sender, _spender, _value);\n        return true;\n    }\n\n    function allowance(address _owner, address _spender) public view returns (uint256 remaining) {\n        return allowed[_owner][_spender];\n    }\n\n    function getTokenInWei() public pure returns(uint256){\n        return tokenInWei;\n    }\n\n    function tokenLeft() public view returns (uint256) {\n        return balances[address(this)];\n    }\n\n    function disburseEther(uint _amount) public returns(uint value) {\n        require(_amount <= balances[msg.sender]);\n        value = _amount * tokenInWei;\n        transfer(address(this), _amount);\n        address(msg.sender).transfer(value);\n    }\n\n    function() external payable{\n    }\n}\n",
  "sourcePath": "/Users/matthiasbabel/git/bachelor-projekt/battery/peer/contracts/Contracts.sol",
  "compiler": {
    "name": "solc",
    "version": "0.5.0+commit.1d4f565a.Emscripten.clang"
  },
  "schemaVersion": "3.0.1",
  "updatedAt": "2019-02-07T18:11:02.249Z",
  "devdoc": {
    "methods": {}
  },
  "userdoc": {
    "methods": {}
  }
}