{
  "contractName": "Energy",
  "abi": [
    {
      "constant": true,
      "inputs": [
        {
          "name": "",
          "type": "uint256"
        }
      ],
      "name": "autorities",
      "outputs": [
        {
          "name": "",
          "type": "address"
        }
      ],
      "payable": false,
      "stateMutability": "view",
      "type": "function",
      "signature": "0x6c29b66f"
    },
    {
      "constant": true,
      "inputs": [],
      "name": "owner",
      "outputs": [
        {
          "name": "",
          "type": "address"
        }
      ],
      "payable": false,
      "stateMutability": "view",
      "type": "function",
      "signature": "0x8da5cb5b"
    },
    {
      "constant": true,
      "inputs": [
        {
          "name": "",
          "type": "address"
        }
      ],
      "name": "lights",
      "outputs": [
        {
          "name": "",
          "type": "uint8"
        }
      ],
      "payable": false,
      "stateMutability": "view",
      "type": "function",
      "signature": "0xa0577a03"
    },
    {
      "constant": true,
      "inputs": [],
      "name": "tokenBase",
      "outputs": [
        {
          "name": "",
          "type": "address"
        }
      ],
      "payable": false,
      "stateMutability": "view",
      "type": "function",
      "signature": "0xb61daaee"
    },
    {
      "constant": true,
      "inputs": [
        {
          "name": "",
          "type": "uint256"
        },
        {
          "name": "",
          "type": "uint256"
        }
      ],
      "name": "auctions",
      "outputs": [
        {
          "name": "",
          "type": "address"
        }
      ],
      "payable": false,
      "stateMutability": "view",
      "type": "function",
      "signature": "0xfc23d5f0"
    },
    {
      "constant": true,
      "inputs": [],
      "name": "intervalLength",
      "outputs": [
        {
          "name": "",
          "type": "uint256"
        }
      ],
      "payable": false,
      "stateMutability": "view",
      "type": "function",
      "signature": "0xff0b3fc5"
    },
    {
      "inputs": [],
      "payable": false,
      "stateMutability": "nonpayable",
      "type": "constructor",
      "signature": "constructor"
    },
    {
      "anonymous": false,
      "inputs": [
        {
          "indexed": true,
          "name": "_contributer",
          "type": "address"
        },
        {
          "indexed": true,
          "name": "_new",
          "type": "address"
        }
      ],
      "name": "NewAuthority",
      "type": "event",
      "signature": "0x5a321fd4627938b7c163d252d290adf9db67f268859a5dfd4f204202754cf6c3"
    },
    {
      "anonymous": false,
      "inputs": [
        {
          "indexed": false,
          "name": "_address",
          "type": "address"
        },
        {
          "indexed": true,
          "name": "_interval",
          "type": "uint256"
        }
      ],
      "name": "NewAuction",
      "type": "event",
      "signature": "0x26a9259d56183793ae3ddcb8025138cb7da79c1374029a6d3c467bfb87622001"
    },
    {
      "constant": true,
      "inputs": [
        {
          "name": "_interval",
          "type": "uint256"
        }
      ],
      "name": "getAuctions",
      "outputs": [
        {
          "name": "",
          "type": "address[]"
        }
      ],
      "payable": false,
      "stateMutability": "view",
      "type": "function",
      "signature": "0x16be3d90"
    },
    {
      "constant": true,
      "inputs": [
        {
          "name": "_sender",
          "type": "address"
        }
      ],
      "name": "isAuthority",
      "outputs": [
        {
          "name": "auth",
          "type": "bool"
        }
      ],
      "payable": false,
      "stateMutability": "view",
      "type": "function",
      "signature": "0x2330f247"
    },
    {
      "constant": false,
      "inputs": [],
      "name": "startAuction",
      "outputs": [
        {
          "name": "",
          "type": "address"
        }
      ],
      "payable": false,
      "stateMutability": "nonpayable",
      "type": "function",
      "signature": "0x6b64c769"
    },
    {
      "constant": false,
      "inputs": [
        {
          "name": "_new",
          "type": "address"
        }
      ],
      "name": "addAuthority",
      "outputs": [],
      "payable": false,
      "stateMutability": "nonpayable",
      "type": "function",
      "signature": "0x26defa73"
    },
    {
      "constant": false,
      "inputs": [
        {
          "name": "_prosumer",
          "type": "address"
        },
        {
          "name": "_light",
          "type": "uint8"
        }
      ],
      "name": "setLight",
      "outputs": [],
      "payable": false,
      "stateMutability": "nonpayable",
      "type": "function",
      "signature": "0x4c088388"
    },
    {
      "constant": true,
      "inputs": [],
      "name": "getCurrentInterval",
      "outputs": [
        {
          "name": "",
          "type": "uint256"
        }
      ],
      "payable": false,
      "stateMutability": "view",
      "type": "function",
      "signature": "0x44e43c98"
    },
    {
      "constant": true,
      "inputs": [],
      "name": "getNextInterval",
      "outputs": [
        {
          "name": "",
          "type": "uint256"
        }
      ],
      "payable": false,
      "stateMutability": "view",
      "type": "function",
      "signature": "0xfbd3f7bd"
    }
  ],
  "bytecode": "0x6080604052603c60035534801561001557600080fd5b5060013390806001815401808255809150509060018203906000526020600020016000909192909190916101000a81548173ffffffffffffffffffffffffffffffffffffffff021916908373ffffffffffffffffffffffffffffffffffffffff16021790555050610084610126565b604051809103906000f0801580156100a0573d6000803e3d6000fd5b506000806101000a81548173ffffffffffffffffffffffffffffffffffffffff021916908373ffffffffffffffffffffffffffffffffffffffff16021790555033600260006101000a81548173ffffffffffffffffffffffffffffffffffffffff021916908373ffffffffffffffffffffffffffffffffffffffff160217905550610136565b604051611bbd80611e6e83390190565b611d29806101456000396000f3fe6080604052600436106100c5576000357c0100000000000000000000000000000000000000000000000000000000900463ffffffff16806316be3d90146100ca5780632330f2471461015a57806326defa73146101c357806344e43c98146102145780634c0883881461023f5780636b64c7691461029d5780636c29b66f146102f45780638da5cb5b1461036f578063a0577a03146103c6578063b61daaee14610439578063fbd3f7bd14610490578063fc23d5f0146104bb578063ff0b3fc514610540575b600080fd5b3480156100d657600080fd5b50610103600480360360208110156100ed57600080fd5b810190808035906020019092919050505061056b565b6040518080602001828103825283818151815260200191508051906020019060200280838360005b8381101561014657808201518184015260208101905061012b565b505050509050019250505060405180910390f35b34801561016657600080fd5b506101a96004803603602081101561017d57600080fd5b81019080803573ffffffffffffffffffffffffffffffffffffffff16906020019092919050505061060c565b604051808215151515815260200191505060405180910390f35b3480156101cf57600080fd5b50610212600480360360208110156101e657600080fd5b81019080803573ffffffffffffffffffffffffffffffffffffffff1690602001909291905050506106a6565b005b34801561022057600080fd5b50610229610874565b6040518082815260200191505060405180910390f35b34801561024b57600080fd5b5061029b6004803603604081101561026257600080fd5b81019080803573ffffffffffffffffffffffffffffffffffffffff169060200190929190803560ff16906020019092919050505061088b565b005b3480156102a957600080fd5b506102b26109fa565b604051808273ffffffffffffffffffffffffffffffffffffffff1673ffffffffffffffffffffffffffffffffffffffff16815260200191505060405180910390f35b34801561030057600080fd5b5061032d6004803603602081101561031757600080fd5b8101908080359060200190929190505050610c3b565b604051808273ffffffffffffffffffffffffffffffffffffffff1673ffffffffffffffffffffffffffffffffffffffff16815260200191505060405180910390f35b34801561037b57600080fd5b50610384610c79565b604051808273ffffffffffffffffffffffffffffffffffffffff1673ffffffffffffffffffffffffffffffffffffffff16815260200191505060405180910390f35b3480156103d257600080fd5b50610415600480360360208110156103e957600080fd5b81019080803573ffffffffffffffffffffffffffffffffffffffff169060200190929190505050610c9f565b6040518082600381111561042557fe5b60ff16815260200191505060405180910390f35b34801561044557600080fd5b5061044e610cbf565b604051808273ffffffffffffffffffffffffffffffffffffffff1673ffffffffffffffffffffffffffffffffffffffff16815260200191505060405180910390f35b34801561049c57600080fd5b506104a5610ce4565b6040518082815260200191505060405180910390f35b3480156104c757600080fd5b506104fe600480360360408110156104de57600080fd5b810190808035906020019092919080359060200190929190505050610cff565b604051808273ffffffffffffffffffffffffffffffffffffffff1673ffffffffffffffffffffffffffffffffffffffff16815260200191505060405180910390f35b34801561054c57600080fd5b50610555610d4c565b6040518082815260200191505060405180910390f35b60606004600083815260200190815260200160002080548060200260200160405190810160405280929190818152602001828054801561060057602002820191906000526020600020905b8160009054906101000a900473ffffffffffffffffffffffffffffffffffffffff1673ffffffffffffffffffffffffffffffffffffffff16815260200190600101908083116105b6575b50505050509050919050565b600080600090505b6001805490508110156106a0578273ffffffffffffffffffffffffffffffffffffffff1660018281548110151561064757fe5b9060005260206000200160009054906101000a900473ffffffffffffffffffffffffffffffffffffffff1673ffffffffffffffffffffffffffffffffffffffff16141561069357600191505b8080600101915050610614565b50919050565b600080600090505b60018054905081101561073a573373ffffffffffffffffffffffffffffffffffffffff166001828154811015156106e157fe5b9060005260206000200160009054906101000a900473ffffffffffffffffffffffffffffffffffffffff1673ffffffffffffffffffffffffffffffffffffffff16141561072d57600191505b80806001019150506106ae565b508015156107b0576040517f08c379a000000000000000000000000000000000000000000000000000000000815260040180806020018281038252600d8152602001807f4e6f207065726d697373696f6e0000000000000000000000000000000000000081525060200191505060405180910390fd5b60018290806001815401808255809150509060018203906000526020600020016000909192909190916101000a81548173ffffffffffffffffffffffffffffffffffffffff021916908373ffffffffffffffffffffffffffffffffffffffff160217905550508173ffffffffffffffffffffffffffffffffffffffff163373ffffffffffffffffffffffffffffffffffffffff167f5a321fd4627938b7c163d252d290adf9db67f268859a5dfd4f204202754cf6c360405160405180910390a35050565b60006003544281151561088357fe5b064203905090565b600080600090505b60018054905081101561091f573373ffffffffffffffffffffffffffffffffffffffff166001828154811015156108c657fe5b9060005260206000200160009054906101000a900473ffffffffffffffffffffffffffffffffffffffff1673ffffffffffffffffffffffffffffffffffffffff16141561091257600191505b8080600101915050610893565b50801515610995576040517f08c379a000000000000000000000000000000000000000000000000000000000815260040180806020018281038252600d8152602001807f4e6f207065726d697373696f6e0000000000000000000000000000000000000081525060200191505060405180910390fd5b81600560008573ffffffffffffffffffffffffffffffffffffffff1673ffffffffffffffffffffffffffffffffffffffff16815260200190815260200160002060006101000a81548160ff021916908360038111156109f057fe5b0217905550505050565b6000610a053361060c565b151515610a7a576040517f08c379a000000000000000000000000000000000000000000000000000000000815260040180806020018281038252600d8152602001807f4e6f207065726d697373696f6e0000000000000000000000000000000000000081525060200191505060405180910390fd5b600033610a85610ce4565b600560003373ffffffffffffffffffffffffffffffffffffffff1673ffffffffffffffffffffffffffffffffffffffff16815260200190815260200160002060009054906101000a900460ff16610ada610d52565b808473ffffffffffffffffffffffffffffffffffffffff1673ffffffffffffffffffffffffffffffffffffffff168152602001838152602001826003811115610b1f57fe5b60ff1681526020019350505050604051809103906000f080158015610b48573d6000803e3d6000fd5b50905060046000610b57610ce4565b81526020019081526020016000208190806001815401808255809150509060018203906000526020600020016000909192909190916101000a81548173ffffffffffffffffffffffffffffffffffffffff021916908373ffffffffffffffffffffffffffffffffffffffff16021790555050610bd1610ce4565b7f26a9259d56183793ae3ddcb8025138cb7da79c1374029a6d3c467bfb8762200182604051808273ffffffffffffffffffffffffffffffffffffffff1673ffffffffffffffffffffffffffffffffffffffff16815260200191505060405180910390a28091505090565b600181815481101515610c4a57fe5b906000526020600020016000915054906101000a900473ffffffffffffffffffffffffffffffffffffffff1681565b600260009054906101000a900473ffffffffffffffffffffffffffffffffffffffff1681565b60056020528060005260406000206000915054906101000a900460ff1681565b6000809054906101000a900473ffffffffffffffffffffffffffffffffffffffff1681565b600060035460035442811515610cf657fe5b06420301905090565b600460205281600052604060002081815481101515610d1a57fe5b906000526020600020016000915091509054906101000a900473ffffffffffffffffffffffffffffffffffffffff1681565b60035481565b604051610f9b80610d638339019056fe608060405234801561001057600080fd5b50604051606080610f9b8339810180604052606081101561003057600080fd5b81019080805190602001909291908051906020019092919080519060200190929190505050336000806101000a81548173ffffffffffffffffffffffffffffffffffffffff021916908373ffffffffffffffffffffffffffffffffffffffff16021790555082600160006101000a81548173ffffffffffffffffffffffffffffffffffffffff021916908373ffffffffffffffffffffffffffffffffffffffff1602179055508160048190555080600560006101000a81548160ff021916908360038111156100fb57fe5b02179055503373ffffffffffffffffffffffffffffffffffffffff1663b61daaee6040518163ffffffff167c010000000000000000000000000000000000000000000000000000000002815260040160206040518083038186803b15801561016257600080fd5b505afa158015610176573d6000803e3d6000fd5b505050506040513d602081101561018c57600080fd5b8101908080519060200190929190505050600560016101000a81548173ffffffffffffffffffffffffffffffffffffffff021916908373ffffffffffffffffffffffffffffffffffffffff16021790555060008073ffffffffffffffffffffffffffffffffffffffff167f13692bed0518bbe01c8a2b50a32f14d0d4abaa43dce4da7af1814182ee64431730604051808273ffffffffffffffffffffffffffffffffffffffff1673ffffffffffffffffffffffffffffffffffffffff16815260200191505060405180910390a3505050610d308061026b6000396000f3fe6080604052600436106100a4576000357c0100000000000000000000000000000000000000000000000000000000900463ffffffff16806302d05d3f146100a95780633c876e6e1461010057806364dbe78c1461012f57806378e97925146101685780638da5cb5b1461019357806391f90157146101ea5780639cf5453d14610241578063abc6fd0b146102aa578063b61daaee146102d5578063d57bde791461032c575b600080fd5b3480156100b557600080fd5b506100be610357565b604051808273ffffffffffffffffffffffffffffffffffffffff1673ffffffffffffffffffffffffffffffffffffffff16815260200191505060405180910390f35b34801561010c57600080fd5b5061011561037c565b604051808215151515815260200191505060405180910390f35b34801561013b57600080fd5b50610144610399565b6040518082600381111561015457fe5b60ff16815260200191505060405180910390f35b34801561017457600080fd5b5061017d6103ac565b6040518082815260200191505060405180910390f35b34801561019f57600080fd5b506101a86103b2565b604051808273ffffffffffffffffffffffffffffffffffffffff1673ffffffffffffffffffffffffffffffffffffffff16815260200191505060405180910390f35b3480156101f657600080fd5b506101ff6103d8565b604051808273ffffffffffffffffffffffffffffffffffffffff1673ffffffffffffffffffffffffffffffffffffffff16815260200191505060405180910390f35b34801561024d57600080fd5b506102906004803603602081101561026457600080fd5b81019080803573ffffffffffffffffffffffffffffffffffffffff1690602001909291905050506103fe565b604051808215151515815260200191505060405180910390f35b3480156102b657600080fd5b506102bf610a1c565b6040518082815260200191505060405180910390f35b3480156102e157600080fd5b506102ea610cd8565b604051808273ffffffffffffffffffffffffffffffffffffffff1673ffffffffffffffffffffffffffffffffffffffff16815260200191505060405180910390f35b34801561033857600080fd5b50610341610cfe565b6040518082815260200191505060405180910390f35b6000809054906101000a900473ffffffffffffffffffffffffffffffffffffffff1681565b60004260045411156103915760009050610396565b600190505b90565b600560009054906101000a900460ff1681565b60045481565b600160009054906101000a900473ffffffffffffffffffffffffffffffffffffffff1681565b600260009054906101000a900473ffffffffffffffffffffffffffffffffffffffff1681565b60003373ffffffffffffffffffffffffffffffffffffffff16600560019054906101000a900473ffffffffffffffffffffffffffffffffffffffff1673ffffffffffffffffffffffffffffffffffffffff161415156104c5576040517f08c379a000000000000000000000000000000000000000000000000000000000815260040180806020018281038252600d8152602001807f4e6f207065726d697373696f6e0000000000000000000000000000000000000081525060200191505060405180910390fd5b6104cd61037c565b151515610542576040517f08c379a00000000000000000000000000000000000000000000000000000000081526004018080602001828103825260138152602001807f49747320746f6f206c61746520746f206269640000000000000000000000000081525060200191505060405180910390fd5b6000600354600560019054906101000a900473ffffffffffffffffffffffffffffffffffffffff1673ffffffffffffffffffffffffffffffffffffffff166370a08231306040518263ffffffff167c0100000000000000000000000000000000000000000000000000000000028152600401808273ffffffffffffffffffffffffffffffffffffffff1673ffffffffffffffffffffffffffffffffffffffff16815260200191505060206040518083038186803b15801561060257600080fd5b505afa158015610616573d6000803e3d6000fd5b505050506040513d602081101561062c57600080fd5b81019080805190602001909291905050500390506003548111158061069e5750600160009054906101000a900473ffffffffffffffffffffffffffffffffffffffff1673ffffffffffffffffffffffffffffffffffffffff168373ffffffffffffffffffffffffffffffffffffffff16145b156107ae57600560019054906101000a900473ffffffffffffffffffffffffffffffffffffffff1673ffffffffffffffffffffffffffffffffffffffff1663a9059cbb84836040518363ffffffff167c0100000000000000000000000000000000000000000000000000000000028152600401808373ffffffffffffffffffffffffffffffffffffffff1673ffffffffffffffffffffffffffffffffffffffff16815260200182815260200192505050602060405180830381600087803b15801561076857600080fd5b505af115801561077c573d6000803e3d6000fd5b505050506040513d602081101561079257600080fd5b8101908080519060200190929190505050506000915050610a17565b600073ffffffffffffffffffffffffffffffffffffffff16600260009054906101000a900473ffffffffffffffffffffffffffffffffffffffff1673ffffffffffffffffffffffffffffffffffffffff1614151561092c57600560019054906101000a900473ffffffffffffffffffffffffffffffffffffffff1673ffffffffffffffffffffffffffffffffffffffff1663a9059cbb600260009054906101000a900473ffffffffffffffffffffffffffffffffffffffff166003546040518363ffffffff167c0100000000000000000000000000000000000000000000000000000000028152600401808373ffffffffffffffffffffffffffffffffffffffff1673ffffffffffffffffffffffffffffffffffffffff16815260200182815260200192505050602060405180830381600087803b1580156108ef57600080fd5b505af1158015610903573d6000803e3d6000fd5b505050506040513d602081101561091957600080fd5b8101908080519060200190929190505050505b80600260009054906101000a900473ffffffffffffffffffffffffffffffffffffffff1673ffffffffffffffffffffffffffffffffffffffff167f13692bed0518bbe01c8a2b50a32f14d0d4abaa43dce4da7af1814182ee64431730604051808273ffffffffffffffffffffffffffffffffffffffff1673ffffffffffffffffffffffffffffffffffffffff16815260200191505060405180910390a38060038190555082600260006101000a81548173ffffffffffffffffffffffffffffffffffffffff021916908373ffffffffffffffffffffffffffffffffffffffff16021790555060019150505b919050565b6000600160009054906101000a900473ffffffffffffffffffffffffffffffffffffffff1673ffffffffffffffffffffffffffffffffffffffff163373ffffffffffffffffffffffffffffffffffffffff16141515610b09576040517f08c379a00000000000000000000000000000000000000000000000000000000081526004018080602001828103825260258152602001807f596f7520617265206e6f7420746865206f776e6572206f66207468697320617581526020017f6374696f6e00000000000000000000000000000000000000000000000000000081525060400191505060405180910390fd5b610b1161037c565b1515610bab576040517f08c379a000000000000000000000000000000000000000000000000000000000815260040180806020018281038252602a8152602001807f596f75206861766520746f207761697420756e74696c2074686520617563746981526020017f6f6e206973206f7665720000000000000000000000000000000000000000000081525060400191505060405180910390fd5b600560019054906101000a900473ffffffffffffffffffffffffffffffffffffffff1673ffffffffffffffffffffffffffffffffffffffff1663a9059cbb600160009054906101000a900473ffffffffffffffffffffffffffffffffffffffff166003546040518363ffffffff167c0100000000000000000000000000000000000000000000000000000000028152600401808373ffffffffffffffffffffffffffffffffffffffff1673ffffffffffffffffffffffffffffffffffffffff16815260200182815260200192505050602060405180830381600087803b158015610c9457600080fd5b505af1158015610ca8573d6000803e3d6000fd5b505050506040513d6020811015610cbe57600080fd5b810190808051906020019092919050505050600354905090565b600560019054906101000a900473ffffffffffffffffffffffffffffffffffffffff1681565b6003548156fea165627a7a72305820b08a3f183513b5ffb2cc249d33c1463ce4393c8251a3fd4280f75459c2d2493e0029a165627a7a723058200d3925ce33e6338704418219ed79c1478670c9e81e6fe90c1307f642d65685380029608060405266038d7ea4c6800060005534801561001b57600080fd5b506c71989183527a1c5d3c400000006003819055506c71989183527a1c5d3c40000000600160003073ffffffffffffffffffffffffffffffffffffffff1673ffffffffffffffffffffffffffffffffffffffff1681526020019081526020016000208190555033600460006101000a81548173ffffffffffffffffffffffffffffffffffffffff021916908373ffffffffffffffffffffffffffffffffffffffff160217905550611aec806100d16000396000f3fe608060405260043610610107576000357c0100000000000000000000000000000000000000000000000000000000900463ffffffff16806302d05d3f146101095780630890b90c14610160578063095ea7b3146101d357806313982e371461024657806318160ddd1461027157806323b872dd1461029c57806327e235e31461032f5780632e0f26251461039457806333a992c4146103c55780633bb6a5a8146103f057806370a082311461041b5780639679dd7d14610480578063a3f4df7e146104ab578063a6f2ae3a1461053b578063a9059cbb14610559578063c55dcbef146105cc578063dd62ed3e146105f7578063f76f8d781461067c578063f79253ee1461070c575b005b34801561011557600080fd5b5061011e610737565b604051808273ffffffffffffffffffffffffffffffffffffffff1673ffffffffffffffffffffffffffffffffffffffff16815260200191505060405180910390f35b34801561016c57600080fd5b506101b96004803603604081101561018357600080fd5b81019080803573ffffffffffffffffffffffffffffffffffffffff1690602001909291908035906020019092919050505061075d565b604051808215151515815260200191505060405180910390f35b3480156101df57600080fd5b5061022c600480360360408110156101f657600080fd5b81019080803573ffffffffffffffffffffffffffffffffffffffff16906020019092919080359060200190929190505050610ae2565b604051808215151515815260200191505060405180910390f35b34801561025257600080fd5b5061025b610d3f565b6040518082815260200191505060405180910390f35b34801561027d57600080fd5b50610286610d50565b6040518082815260200191505060405180910390f35b3480156102a857600080fd5b50610315600480360360608110156102bf57600080fd5b81019080803573ffffffffffffffffffffffffffffffffffffffff169060200190929190803573ffffffffffffffffffffffffffffffffffffffff16906020019092919080359060200190929190505050610d56565b604051808215151515815260200191505060405180910390f35b34801561033b57600080fd5b5061037e6004803603602081101561035257600080fd5b81019080803573ffffffffffffffffffffffffffffffffffffffff1690602001909291905050506110b8565b6040518082815260200191505060405180910390f35b3480156103a057600080fd5b506103a96110d0565b604051808260ff1660ff16815260200191505060405180910390f35b3480156103d157600080fd5b506103da6110d5565b6040518082815260200191505060405180910390f35b3480156103fc57600080fd5b506104056110f4565b6040518082815260200191505060405180910390f35b34801561042757600080fd5b5061046a6004803603602081101561043e57600080fd5b81019080803573ffffffffffffffffffffffffffffffffffffffff1690602001909291905050506110fd565b6040518082815260200191505060405180910390f35b34801561048c57600080fd5b50610495611146565b6040518082815260200191505060405180910390f35b3480156104b757600080fd5b506104c061118d565b6040518080602001828103825283818151815260200191508051906020019080838360005b838110156105005780820151818401526020810190506104e5565b50505050905090810190601f16801561052d5780820380516001836020036101000a031916815260200191505b509250505060405180910390f35b6105436111c6565b6040518082815260200191505060405180910390f35b34801561056557600080fd5b506105b26004803603604081101561057c57600080fd5b81019080803573ffffffffffffffffffffffffffffffffffffffff169060200190929190803590602001909291905050506114f9565b604051808215151515815260200191505060405180910390f35b3480156105d857600080fd5b506105e161181c565b6040518082815260200191505060405180910390f35b34801561060357600080fd5b506106666004803603604081101561061a57600080fd5b81019080803573ffffffffffffffffffffffffffffffffffffffff169060200190929190803573ffffffffffffffffffffffffffffffffffffffff1690602001909291905050506119fa565b6040518082815260200191505060405180910390f35b34801561068857600080fd5b50610691611a81565b6040518080602001828103825283818151815260200191508051906020019080838360005b838110156106d15780820151818401526020810190506106b6565b50505050905090810190601f1680156106fe5780820380516001836020036101000a031916815260200191505b509250505060405180910390f35b34801561071857600080fd5b50610721611aba565b6040518082815260200191505060405180910390f35b600460009054906101000a900473ffffffffffffffffffffffffffffffffffffffff1681565b6000600460009054906101000a900473ffffffffffffffffffffffffffffffffffffffff1673ffffffffffffffffffffffffffffffffffffffff16632330f247336040518263ffffffff167c0100000000000000000000000000000000000000000000000000000000028152600401808273ffffffffffffffffffffffffffffffffffffffff1673ffffffffffffffffffffffffffffffffffffffff16815260200191505060206040518083038186803b15801561081a57600080fd5b505afa15801561082e573d6000803e3d6000fd5b505050506040513d602081101561084457600080fd5b81019080805190602001909291905050501515156108ca576040517f08c379a000000000000000000000000000000000000000000000000000000000815260040180806020018281038252600d8152602001807f4e6f207065726d697373696f6e0000000000000000000000000000000000000081525060200191505060405180910390fd5b60008373ffffffffffffffffffffffffffffffffffffffff166391f901576040518163ffffffff167c010000000000000000000000000000000000000000000000000000000002815260040160206040518083038186803b15801561092e57600080fd5b505afa158015610942573d6000803e3d6000fd5b505050506040513d602081101561095857600080fd5b8101908080519060200190929190505050905061097584846114f9565b508373ffffffffffffffffffffffffffffffffffffffff16639cf5453d336040518263ffffffff167c0100000000000000000000000000000000000000000000000000000000028152600401808273ffffffffffffffffffffffffffffffffffffffff1673ffffffffffffffffffffffffffffffffffffffff168152602001915050602060405180830381600087803b158015610a1157600080fd5b505af1158015610a25573d6000803e3d6000fd5b505050506040513d6020811015610a3b57600080fd5b810190808051906020019092919050505015610ad657828173ffffffffffffffffffffffffffffffffffffffff167f13692bed0518bbe01c8a2b50a32f14d0d4abaa43dce4da7af1814182ee64431786604051808273ffffffffffffffffffffffffffffffffffffffff1673ffffffffffffffffffffffffffffffffffffffff16815260200191505060405180910390a36001915050610adc565b60009150505b92915050565b6000600460009054906101000a900473ffffffffffffffffffffffffffffffffffffffff1673ffffffffffffffffffffffffffffffffffffffff16632330f247336040518263ffffffff167c0100000000000000000000000000000000000000000000000000000000028152600401808273ffffffffffffffffffffffffffffffffffffffff1673ffffffffffffffffffffffffffffffffffffffff16815260200191505060206040518083038186803b158015610b9f57600080fd5b505afa158015610bb3573d6000803e3d6000fd5b505050506040513d6020811015610bc957600080fd5b8101908080519060200190929190505050151515610c4f576040517f08c379a000000000000000000000000000000000000000000000000000000000815260040180806020018281038252600d8152602001807f4e6f207065726d697373696f6e0000000000000000000000000000000000000081525060200191505060405180910390fd5b81600260003373ffffffffffffffffffffffffffffffffffffffff1673ffffffffffffffffffffffffffffffffffffffff16815260200190815260200160002060008573ffffffffffffffffffffffffffffffffffffffff1673ffffffffffffffffffffffffffffffffffffffff168152602001908152602001600020819055508273ffffffffffffffffffffffffffffffffffffffff163373ffffffffffffffffffffffffffffffffffffffff167f8c5be1e5ebec7d5bd14f71427d1e84f3dd0314c0f7b2291e5b200ac8c7c3b925846040518082815260200191505060405180910390a36001905092915050565b6c71989183527a1c5d3c4000000081565b60035481565b600080600260008673ffffffffffffffffffffffffffffffffffffffff1673ffffffffffffffffffffffffffffffffffffffff16815260200190815260200160002060008573ffffffffffffffffffffffffffffffffffffffff1673ffffffffffffffffffffffffffffffffffffffff16815260200190815260200160002054905082600160008773ffffffffffffffffffffffffffffffffffffffff1673ffffffffffffffffffffffffffffffffffffffff1681526020019081526020016000205410151515610e8f576040517f08c379a000000000000000000000000000000000000000000000000000000000815260040180806020018281038252601b8152602001807f53656e64657220686173206e6f7420656e6f75676820546f6b656e000000000081525060200191505060405180910390fd5b828110151515610f2d576040517f08c379a00000000000000000000000000000000000000000000000000000000081526004018080602001828103825260248152602001807f5468657265206973206e6f20616c6c6f77616e636520666f722074686973207681526020017f616c75650000000000000000000000000000000000000000000000000000000081525060400191505060405180910390fd5b82600160008673ffffffffffffffffffffffffffffffffffffffff1673ffffffffffffffffffffffffffffffffffffffff1681526020019081526020016000206000828254019250508190555082600160008773ffffffffffffffffffffffffffffffffffffffff1673ffffffffffffffffffffffffffffffffffffffff1681526020019081526020016000206000828254039250508190555082600260008773ffffffffffffffffffffffffffffffffffffffff1673ffffffffffffffffffffffffffffffffffffffff16815260200190815260200160002060008673ffffffffffffffffffffffffffffffffffffffff1673ffffffffffffffffffffffffffffffffffffffff16815260200190815260200160002060008282540392505081905550828473ffffffffffffffffffffffffffffffffffffffff168673ffffffffffffffffffffffffffffffffffffffff167fddf252ad1be2c89b69c2b068fc378daa952ba7f163c4a11628f55a4df523b3ef60405160405180910390a460019150509392505050565b60016020528060005260406000206000915090505481565b600081565b60003073ffffffffffffffffffffffffffffffffffffffff1631905090565b60008054905090565b6000600160008373ffffffffffffffffffffffffffffffffffffffff1673ffffffffffffffffffffffffffffffffffffffff168152602001908152602001600020549050919050565b6000600160003073ffffffffffffffffffffffffffffffffffffffff1673ffffffffffffffffffffffffffffffffffffffff16815260200190815260200160002054905090565b6040805190810160405280600f81526020017f456e6572436861696e20546f6b656e000000000000000000000000000000000081525081565b6000600460009054906101000a900473ffffffffffffffffffffffffffffffffffffffff1673ffffffffffffffffffffffffffffffffffffffff16632330f247336040518263ffffffff167c0100000000000000000000000000000000000000000000000000000000028152600401808273ffffffffffffffffffffffffffffffffffffffff1673ffffffffffffffffffffffffffffffffffffffff16815260200191505060206040518083038186803b15801561128357600080fd5b505afa158015611297573d6000803e3d6000fd5b505050506040513d60208110156112ad57600080fd5b8101908080519060200190929190505050151515611333576040517f08c379a000000000000000000000000000000000000000000000000000000000815260040180806020018281038252600d8152602001807f4e6f207065726d697373696f6e0000000000000000000000000000000000000081525060200191505060405180910390fd5b6000543481151561134057fe5b04905080341115156113ba576040517f08c379a00000000000000000000000000000000000000000000000000000000081526004018080602001828103825260058152602001807f4572726f7200000000000000000000000000000000000000000000000000000081525060200191505060405180910390fd5b60008054820234039050600081141515611416573373ffffffffffffffffffffffffffffffffffffffff166108fc829081150290604051600060405180830381858888f19350505050158015611414573d6000803e3d6000fd5b505b3073ffffffffffffffffffffffffffffffffffffffff1663a9059cbb33846040518363ffffffff167c0100000000000000000000000000000000000000000000000000000000028152600401808373ffffffffffffffffffffffffffffffffffffffff1673ffffffffffffffffffffffffffffffffffffffff16815260200182815260200192505050602060405180830381600087803b1580156114b957600080fd5b505af11580156114cd573d6000803e3d6000fd5b505050506040513d60208110156114e357600080fd5b8101908080519060200190929190505050505090565b6000600460009054906101000a900473ffffffffffffffffffffffffffffffffffffffff1673ffffffffffffffffffffffffffffffffffffffff16632330f247336040518263ffffffff167c0100000000000000000000000000000000000000000000000000000000028152600401808273ffffffffffffffffffffffffffffffffffffffff1673ffffffffffffffffffffffffffffffffffffffff16815260200191505060206040518083038186803b1580156115b657600080fd5b505afa1580156115ca573d6000803e3d6000fd5b505050506040513d60208110156115e057600080fd5b8101908080519060200190929190505050151515611666576040517f08c379a000000000000000000000000000000000000000000000000000000000815260040180806020018281038252600d8152602001807f4e6f207065726d697373696f6e0000000000000000000000000000000000000081525060200191505060405180910390fd5b81600160003373ffffffffffffffffffffffffffffffffffffffff1673ffffffffffffffffffffffffffffffffffffffff168152602001908152602001600020541015151561171d576040517f08c379a000000000000000000000000000000000000000000000000000000000815260040180806020018281038252601b8152602001807f53656e64657220686173206e6f7420656e6f75676820546f6b656e000000000081525060200191505060405180910390fd5b81600160003373ffffffffffffffffffffffffffffffffffffffff1673ffffffffffffffffffffffffffffffffffffffff1681526020019081526020016000206000828254039250508190555081600160008573ffffffffffffffffffffffffffffffffffffffff1673ffffffffffffffffffffffffffffffffffffffff16815260200190815260200160002060008282540192505081905550818373ffffffffffffffffffffffffffffffffffffffff163373ffffffffffffffffffffffffffffffffffffffff167fddf252ad1be2c89b69c2b068fc378daa952ba7f163c4a11628f55a4df523b3ef60405160405180910390a46001905092915050565b6000600460009054906101000a900473ffffffffffffffffffffffffffffffffffffffff1673ffffffffffffffffffffffffffffffffffffffff16638da5cb5b6040518163ffffffff167c010000000000000000000000000000000000000000000000000000000002815260040160206040518083038186803b1580156118a257600080fd5b505afa1580156118b6573d6000803e3d6000fd5b505050506040513d60208110156118cc57600080fd5b810190808051906020019092919050505073ffffffffffffffffffffffffffffffffffffffff163373ffffffffffffffffffffffffffffffffffffffff1614151561197f576040517f08c379a000000000000000000000000000000000000000000000000000000000815260040180806020018281038252600d8152602001807f4e6f207065726d697373696f6e0000000000000000000000000000000000000081525060200191505060405180910390fd5b3073ffffffffffffffffffffffffffffffffffffffff163190503073ffffffffffffffffffffffffffffffffffffffff166108fc3073ffffffffffffffffffffffffffffffffffffffff16319081150290604051600060405180830381858888f193505050501580156119f6573d6000803e3d6000fd5b5090565b6000600260008473ffffffffffffffffffffffffffffffffffffffff1673ffffffffffffffffffffffffffffffffffffffff16815260200190815260200160002060008373ffffffffffffffffffffffffffffffffffffffff1673ffffffffffffffffffffffffffffffffffffffff16815260200190815260200160002054905092915050565b6040805190810160405280600381526020017f454354000000000000000000000000000000000000000000000000000000000081525081565b6000548156fea165627a7a723058205af0708e274cafc480a0dcf4af678909abb21ffe321b7fd89e6f399d2643ffc20029",
  "source": "pragma solidity ^0.5.0;\n\ncontract Energy {\n    TokenBase public tokenBase;\n    address[] public autorities;\n    address public owner;\n    uint public intervalLength = 60;\n    mapping (uint => address[]) public auctions;\n    mapping (address => Auction.Lights) public lights;\n    event NewAuthority(address indexed _contributer, address indexed _new);\n    event NewAuction(address _address, uint indexed _interval);\n\n    modifier onlyAuthority {\n        bool access;\n        for(uint i = 0; i < autorities.length; i++){\n            if(autorities[i] == msg.sender)\n                access = true;\n        }\n        require(access, \"No permission\");\n        _;\n    }\n\n    constructor() public {\n        autorities.push(msg.sender);\n        tokenBase = new TokenBase();\n        owner = msg.sender;\n    }\n\n    function getAuctions(uint _interval) public view returns(address[] memory) {\n      return auctions[_interval];\n    }\n\n    function isAuthority(address _sender) public view returns(bool auth) {\n        for(uint i = 0; i < autorities.length; i++){\n            if(autorities[i] == _sender)\n                auth = true;\n        }\n    }\n\n    function startAuction() public returns(address) {\n        require(!isAuthority(msg.sender), \"No permission\");\n        Auction tmp = new Auction(msg.sender, getNextInterval(), lights[msg.sender]);\n        auctions[getNextInterval()].push(address(tmp));\n        emit NewAuction(address(tmp), getNextInterval());\n        return address(tmp);\n    }\n\n    function addAuthority(address _new) public onlyAuthority {\n        autorities.push(_new);\n        emit NewAuthority(msg.sender, _new);\n    }\n\n    function setLight(address _prosumer, Auction.Lights _light) onlyAuthority public {\n        lights[_prosumer] = _light;\n    }\n\n    function getCurrentInterval() public view returns(uint) {\n        return (now - (now % intervalLength));\n    }\n\n    function getNextInterval() public view returns(uint) {\n        return (now - (now % intervalLength)) + intervalLength;\n    }\n\n}\n\ncontract Auction {\n    address public creator;\n    address public owner;\n    address public highestBidder;\n    uint public highestBid;\n    uint public startTime;\n    enum Lights {NOTRANKED, RED, YELLO, GREEN} Lights public light;\n    TokenBase public tokenBase;\n    event Bid(address indexed lastHighestBidder, uint indexed newHighestBid, address auction);\n\n    constructor(address _owner, uint _startTime, Lights _light) public {\n        creator = msg.sender;\n        owner = _owner;\n        startTime = _startTime;\n        light = _light;\n        tokenBase = Energy(msg.sender).tokenBase();\n        emit Bid(address(0), 0, address(this));\n    }\n\n    function bid(address _bidder) external returns(bool) {\n        require(address(tokenBase) == msg.sender, \"No permission\");\n        require(!isElapsed(), \"Its too late to bid\");\n        uint newBid = tokenBase.balanceOf(address(this)) - highestBid;\n        //Es wird aufgezeichnet, wenn jemand ein zu niedriges Gebot setzt, oder auf seine eigene Auction bietet\n        if(newBid <= highestBid || _bidder == owner) {\n            tokenBase.transfer(_bidder, newBid);\n            return false;\n        }\n        if(highestBidder != address(0))\n            tokenBase.transfer(highestBidder, highestBid);\n        emit Bid(highestBidder, newBid, address(this));\n        highestBid = newBid;\n        highestBidder = _bidder;\n        return true;\n    }\n\n    function isElapsed() public view returns(bool) {\n        if(startTime > now)\n            return false;\n        else\n            return true;\n    }\n\n    function disburse() public returns(uint) {\n        require(msg.sender == owner, \"You are not the owner of this auction\");\n        require(isElapsed(), \"You have to wait until the auction is over\");\n        tokenBase.transfer(owner, highestBid);\n        return highestBid;\n    }\n}\n\ncontract TokenBase {\n    string public constant NAME = \"EnerChain Token\";\n    string public constant SYMBOL = \"ECT\";\n    uint8 public constant DECIMALS = 0;\n    uint256 public constant INITIAL_AMOUNT = 9000000000000000000000000000000;\n    uint256 public tokenInWei = 1000000000000000;\n    mapping (address => uint256) public balances;\n    mapping (address => mapping (address => uint256)) allowed;\n    uint public totalSupply;\n    event Transfer(address indexed _from, address indexed _to, uint indexed _value);\n    event Approval(address indexed _owner, address indexed _to, uint256 _value);\n    event Bid(address indexed lastHighestBidder, uint indexed newHighestBid, address auction);\n    address public creator;\n\n    constructor() public {\n        totalSupply = INITIAL_AMOUNT;\n        balances[address(this)] = INITIAL_AMOUNT;\n        creator = msg.sender;\n    }\n\n    function bidOnAuction(address _auction, uint _value) public returns(bool) {\n        require(!Energy(creator).isAuthority(msg.sender), \"No permission\");\n        address lastHighestBidder = Auction(_auction).highestBidder();\n        transfer(_auction, _value);\n        if(Auction(_auction).bid(msg.sender)){\n          emit Bid(lastHighestBidder, _value, _auction);\n          return true;\n        }\n        return false;\n    }\n\n    function buy() public payable returns(uint amount) {\n        require(!Energy(creator).isAuthority(msg.sender), \"No permission\");\n        amount = (msg.value/tokenInWei);\n        require(msg.value > amount, \"Error\");\n        uint256 rest = msg.value - (amount * tokenInWei);\n        if(rest != 0) {\n            msg.sender.transfer(rest);\n        }\n        this.transfer(msg.sender, amount);\n    }\n\n    function balanceOf(address _owner) public view returns (uint256 balance) {\n        return balances[_owner];\n    }\n\n    function transfer(address _to, uint256 _value) public returns (bool success) {\n        require(!Energy(creator).isAuthority(msg.sender), \"No permission\");\n        require(balances[msg.sender] >= _value, \"Sender has not enough Token\");\n        balances[msg.sender] -= _value;\n        balances[_to] += _value;\n        emit Transfer(msg.sender, _to, _value);\n        return true;\n    }\n\n    function transferFrom(address _from, address _to, uint256 _value) public returns (bool success) {\n        uint256 allowance = allowed[_from][_to];\n        require(balances[_from] >= _value, \"Sender has not enough Token\");\n        require(allowance >= _value, \"There is no allowance for this value\");\n        balances[_to] += _value;\n        balances[_from] -= _value;\n        allowed[_from][_to] -= _value;\n        emit Transfer(_from, _to, _value);\n        return true;\n    }\n\n    function approve(address _spender, uint256 _value) public returns (bool success) {\n        require(!Energy(creator).isAuthority(msg.sender), \"No permission\");\n        allowed[msg.sender][_spender] = _value;\n        emit Approval(msg.sender, _spender, _value);\n        return true;\n    }\n\n    function allowance(address _owner, address _spender) public view returns (uint256 remaining) {\n        return allowed[_owner][_spender];\n    }\n\n    function getTokenInWei() public view returns(uint256){\n        return tokenInWei;\n\n    }\n\n    function tokenLeft() public view returns (uint256) {\n        return balances[address(this)];\n    }\n\n    function getWeiInTokenbase() public view returns(uint) {\n        return address(this).balance;\n    }\n\n    function disburseEther() public returns(uint balance) {\n        require(msg.sender == Energy(creator).owner(), \"No permission\");\n        balance = address(this).balance;\n        address(this).transfer(address(this).balance);\n    }\n\n    function() external payable{\n    }\n}\n",
  "sourcePath": "/Users/matthiasbabel/git/bachelor-projekt/p2p/peer/contracts/Contracts.sol",
  "compiler": {
    "name": "solc",
    "version": "0.5.0+commit.1d4f565a.Emscripten.clang"
  },
  "schemaVersion": "3.0.1",
  "updatedAt": "2019-02-08T17:28:07.232Z",
  "devdoc": {
    "methods": {}
  },
  "userdoc": {
    "methods": {}
  }
}