{
  "contractName": "Home",
  "abi": [
    {
      "constant": true,
      "inputs": [
        {
          "name": "",
          "type": "uint256"
        },
        {
          "name": "",
          "type": "uint256"
        }
      ],
      "name": "storageGrid",
      "outputs": [
        {
          "name": "",
          "type": "address"
        }
      ],
      "payable": false,
      "stateMutability": "view",
      "type": "function"
    },
    {
      "constant": true,
      "inputs": [
        {
          "name": "",
          "type": "uint256"
        }
      ],
      "name": "storages",
      "outputs": [
        {
          "name": "",
          "type": "address"
        }
      ],
      "payable": false,
      "stateMutability": "view",
      "type": "function"
    },
    {
      "inputs": [],
      "payable": false,
      "stateMutability": "nonpayable",
      "type": "constructor"
    },
    {
      "constant": false,
      "inputs": [],
      "name": "setOn",
      "outputs": [],
      "payable": false,
      "stateMutability": "nonpayable",
      "type": "function"
    },
    {
      "constant": true,
      "inputs": [],
      "name": "getOn",
      "outputs": [
        {
          "name": "",
          "type": "bool"
        }
      ],
      "payable": false,
      "stateMutability": "view",
      "type": "function"
    },
    {
      "constant": true,
      "inputs": [
        {
          "name": "_stNbr",
          "type": "uint256"
        }
      ],
      "name": "getCapaOfMyStorage",
      "outputs": [
        {
          "name": "",
          "type": "uint256"
        }
      ],
      "payable": false,
      "stateMutability": "view",
      "type": "function"
    },
    {
      "constant": true,
      "inputs": [],
      "name": "getNbrOfClaims",
      "outputs": [
        {
          "name": "",
          "type": "uint256"
        }
      ],
      "payable": false,
      "stateMutability": "view",
      "type": "function"
    },
    {
      "constant": true,
      "inputs": [],
      "name": "getPauschale",
      "outputs": [
        {
          "name": "",
          "type": "uint256"
        }
      ],
      "payable": false,
      "stateMutability": "view",
      "type": "function"
    },
    {
      "constant": false,
      "inputs": [
        {
          "name": "_value",
          "type": "uint256"
        }
      ],
      "name": "setPauschale",
      "outputs": [],
      "payable": false,
      "stateMutability": "nonpayable",
      "type": "function"
    },
    {
      "constant": true,
      "inputs": [],
      "name": "getTokenForOneCapacity",
      "outputs": [
        {
          "name": "",
          "type": "uint256"
        }
      ],
      "payable": false,
      "stateMutability": "view",
      "type": "function"
    },
    {
      "constant": true,
      "inputs": [
        {
          "name": "_owner",
          "type": "address"
        }
      ],
      "name": "balanceOf",
      "outputs": [
        {
          "name": "balance",
          "type": "uint256"
        }
      ],
      "payable": false,
      "stateMutability": "view",
      "type": "function"
    },
    {
      "constant": false,
      "inputs": [],
      "name": "claim",
      "outputs": [],
      "payable": false,
      "stateMutability": "nonpayable",
      "type": "function"
    },
    {
      "constant": false,
      "inputs": [
        {
          "name": "_x",
          "type": "uint256"
        },
        {
          "name": "_y",
          "type": "uint256"
        },
        {
          "name": "_value",
          "type": "uint256"
        }
      ],
      "name": "useCapaInNextIntervalFromXY",
      "outputs": [
        {
          "name": "capaLeft",
          "type": "uint256"
        }
      ],
      "payable": false,
      "stateMutability": "nonpayable",
      "type": "function"
    },
    {
      "constant": true,
      "inputs": [],
      "name": "getMaxCapa",
      "outputs": [
        {
          "name": "maxCapa",
          "type": "uint256"
        }
      ],
      "payable": false,
      "stateMutability": "view",
      "type": "function"
    },
    {
      "constant": false,
      "inputs": [
        {
          "name": "_stNbr",
          "type": "uint256"
        },
        {
          "name": "_capa",
          "type": "uint256"
        }
      ],
      "name": "changeCapa",
      "outputs": [],
      "payable": false,
      "stateMutability": "nonpayable",
      "type": "function"
    },
    {
      "constant": true,
      "inputs": [],
      "name": "getMyStorages",
      "outputs": [
        {
          "name": "",
          "type": "address[]"
        }
      ],
      "payable": false,
      "stateMutability": "view",
      "type": "function"
    },
    {
      "constant": true,
      "inputs": [],
      "name": "getInterval",
      "outputs": [
        {
          "name": "",
          "type": "uint256"
        }
      ],
      "payable": false,
      "stateMutability": "view",
      "type": "function"
    },
    {
      "constant": false,
      "inputs": [
        {
          "name": "_stNbr",
          "type": "uint256"
        }
      ],
      "name": "setMyStorageOffline",
      "outputs": [],
      "payable": false,
      "stateMutability": "nonpayable",
      "type": "function"
    },
    {
      "constant": false,
      "inputs": [
        {
          "name": "_stNbr",
          "type": "uint256"
        }
      ],
      "name": "setMyStorageOnline",
      "outputs": [],
      "payable": false,
      "stateMutability": "nonpayable",
      "type": "function"
    },
    {
      "constant": false,
      "inputs": [
        {
          "name": "_x",
          "type": "uint256"
        },
        {
          "name": "_y",
          "type": "uint256"
        },
        {
          "name": "_value",
          "type": "uint256"
        }
      ],
      "name": "useCapaInNextIntervalForXY",
      "outputs": [
        {
          "name": "valueLeft",
          "type": "uint256"
        }
      ],
      "payable": false,
      "stateMutability": "nonpayable",
      "type": "function"
    },
    {
      "constant": false,
      "inputs": [],
      "name": "newProsumer",
      "outputs": [],
      "payable": false,
      "stateMutability": "nonpayable",
      "type": "function"
    },
    {
      "constant": false,
      "inputs": [
        {
          "name": "_x",
          "type": "uint256"
        },
        {
          "name": "_y",
          "type": "uint256"
        },
        {
          "name": "_capacity",
          "type": "uint256"
        }
      ],
      "name": "addNewStorage",
      "outputs": [],
      "payable": false,
      "stateMutability": "nonpayable",
      "type": "function"
    },
    {
      "constant": true,
      "inputs": [],
      "name": "getActualInterval",
      "outputs": [
        {
          "name": "",
          "type": "uint256"
        }
      ],
      "payable": false,
      "stateMutability": "view",
      "type": "function"
    },
    {
      "constant": true,
      "inputs": [],
      "name": "getNextInterval",
      "outputs": [
        {
          "name": "",
          "type": "uint256"
        }
      ],
      "payable": false,
      "stateMutability": "view",
      "type": "function"
    },
    {
      "constant": true,
      "inputs": [
        {
          "name": "_x",
          "type": "uint256"
        },
        {
          "name": "_y",
          "type": "uint256"
        }
      ],
      "name": "getStorageFromXY",
      "outputs": [
        {
          "name": "",
          "type": "address"
        }
      ],
      "payable": false,
      "stateMutability": "view",
      "type": "function"
    },
    {
      "constant": true,
      "inputs": [],
      "name": "getUnusedCapaInNextInterval",
      "outputs": [
        {
          "name": "value",
          "type": "uint256"
        }
      ],
      "payable": false,
      "stateMutability": "view",
      "type": "function"
    },
    {
      "constant": true,
      "inputs": [
        {
          "name": "_x",
          "type": "uint256"
        },
        {
          "name": "_y",
          "type": "uint256"
        }
      ],
      "name": "getUnusedCapaInNextInterval",
      "outputs": [
        {
          "name": "",
          "type": "uint256"
        }
      ],
      "payable": false,
      "stateMutability": "view",
      "type": "function"
    },
    {
      "constant": true,
      "inputs": [
        {
          "name": "_x",
          "type": "uint256"
        }
      ],
      "name": "getMyUnusedCapaInNextInterval",
      "outputs": [
        {
          "name": "",
          "type": "uint256"
        }
      ],
      "payable": false,
      "stateMutability": "view",
      "type": "function"
    }
  ],
  "bytecode": "0x6080604052600a6000556001600755600a6008556000600960006101000a81548160ff0219169083151502179055503480156200003b57600080fd5b5033600160006101000a81548173ffffffffffffffffffffffffffffffffffffffff021916908373ffffffffffffffffffffffffffffffffffffffff16021790555062000087620000eb565b604051809103906000f080158015620000a4573d6000803e3d6000fd5b50600660006101000a81548173ffffffffffffffffffffffffffffffffffffffff021916908373ffffffffffffffffffffffffffffffffffffffff160217905550620000fc565b6040516110db8062003dda83390190565b613cce806200010c6000396000f30060806040526004361061015f576000357c0100000000000000000000000000000000000000000000000000000000900463ffffffff1680631c20de7e14610164578063202bf1581461019b57806322b1c6e2146101dc57806322d940b31461021d578063246db271146102485780633356dc27146102bf5780633b03dd09146102ea57806340612c521461030157806347b84eac146103185780634c8aceee146103455780634e71d92d14610372578063604952e01461038957806368951703146103b457806370a08231146103df5780637a97867414610436578063916e5ae11461047757806391ad27b4146104cc578063c4854637146104f7578063d8f22fa414610526578063da16f91d1461057b578063e190d079146105a6578063e881cd0514610612578063ec691b491461063f578063ed363fdc1461068a578063f7f81b8b146106f7578063fbd3f7bd1461076e578063fec5679c14610799575b600080fd5b34801561017057600080fd5b5061019960048036038101908080359060200190929190803590602001909291905050506107c4565b005b3480156101a757600080fd5b506101c6600480360381019080803590602001909291905050506109b9565b6040518082815260200191505060405180910390f35b3480156101e857600080fd5b5061021b600480360381019080803590602001909291908035906020019092919080359060200190929190505050610bca565b005b34801561022957600080fd5b50610232610e23565b6040518082815260200191505060405180910390f35b34801561025457600080fd5b5061027d6004803603810190808035906020019092919080359060200190929190505050610e2d565b604051808273ffffffffffffffffffffffffffffffffffffffff1673ffffffffffffffffffffffffffffffffffffffff16815260200191505060405180910390f35b3480156102cb57600080fd5b506102d4610e6f565b6040518082815260200191505060405180910390f35b3480156102f657600080fd5b506102ff610e85565b005b34801561030d57600080fd5b50610316610fc6565b005b34801561032457600080fd5b5061034360048036038101908080359060200190929190505050610fe3565b005b34801561035157600080fd5b50610370600480360381019080803590602001909291905050506111cc565b005b34801561037e57600080fd5b506103876111d6565b005b34801561039557600080fd5b5061039e611976565b6040518082815260200191505060405180910390f35b3480156103c057600080fd5b506103c9611a78565b6040518082815260200191505060405180910390f35b3480156103eb57600080fd5b50610420600480360381019080803573ffffffffffffffffffffffffffffffffffffffff169060200190929190505050611b7a565b6040518082815260200191505060405180910390f35b34801561044257600080fd5b5061046160048036038101908080359060200190929190505050611c7b565b6040518082815260200191505060405180910390f35b34801561048357600080fd5b506104b6600480360381019080803590602001909291908035906020019092919080359060200190929190505050611e8d565b6040518082815260200191505060405180910390f35b3480156104d857600080fd5b506104e16123cf565b6040518082815260200191505060405180910390f35b34801561050357600080fd5b5061050c6123d8565b604051808215151515815260200191505060405180910390f35b34801561053257600080fd5b506105656004803603810190808035906020019092919080359060200190929190803590602001909291905050506123ef565b6040518082815260200191505060405180910390f35b34801561058757600080fd5b506105906124e8565b6040518082815260200191505060405180910390f35b3480156105b257600080fd5b506105bb6126f9565b6040518080602001828103825283818151815260200191508051906020019060200280838360005b838110156105fe5780820151818401526020810190506105e3565b505050509050019250505060405180910390f35b34801561061e57600080fd5b5061063d60048036038101908080359060200190929190505050612854565b005b34801561064b57600080fd5b506106746004803603810190808035906020019092919080359060200190929190505050612a3d565b6040518082815260200191505060405180910390f35b34801561069657600080fd5b506106b560048036038101908080359060200190929190505050612b2a565b604051808273ffffffffffffffffffffffffffffffffffffffff1673ffffffffffffffffffffffffffffffffffffffff16815260200191505060405180910390f35b34801561070357600080fd5b5061072c6004803603810190808035906020019092919080359060200190929190505050612b68565b604051808273ffffffffffffffffffffffffffffffffffffffff1673ffffffffffffffffffffffffffffffffffffffff16815260200191505060405180910390f35b34801561077a57600080fd5b50610783612bb7565b6040518082815260200191505060405180910390f35b3480156107a557600080fd5b506107ae612bd1565b6040518082815260200191505060405180910390f35b600460003373ffffffffffffffffffffffffffffffffffffffff1673ffffffffffffffffffffffffffffffffffffffff16815260200190815260200160002060009054906101000a900473ffffffffffffffffffffffffffffffffffffffff1673ffffffffffffffffffffffffffffffffffffffff1663577780996040518163ffffffff167c0100000000000000000000000000000000000000000000000000000000028152600401600060405180830381600087803b15801561088757600080fd5b505af115801561089b573d6000803e3d6000fd5b505050506040513d6000823e3d601f19601f8201168201806040525060208110156108c557600080fd5b8101908080516401000000008111156108dd57600080fd5b828101905060208101848111156108f357600080fd5b815185602082028301116401000000008211171561091057600080fd5b50509291905050508281518110151561092557fe5b9060200190602002015173ffffffffffffffffffffffffffffffffffffffff1663d6742899826040518263ffffffff167c010000000000000000000000000000000000000000000000000000000002815260040180828152602001915050600060405180830381600087803b15801561099d57600080fd5b505af11580156109b1573d6000803e3d6000fd5b505050505050565b6000600460003373ffffffffffffffffffffffffffffffffffffffff1673ffffffffffffffffffffffffffffffffffffffff16815260200190815260200160002060009054906101000a900473ffffffffffffffffffffffffffffffffffffffff1673ffffffffffffffffffffffffffffffffffffffff1663577780996040518163ffffffff167c0100000000000000000000000000000000000000000000000000000000028152600401600060405180830381600087803b158015610a7e57600080fd5b505af1158015610a92573d6000803e3d6000fd5b505050506040513d6000823e3d601f19601f820116820180604052506020811015610abc57600080fd5b810190808051640100000000811115610ad457600080fd5b82810190506020810184811115610aea57600080fd5b8151856020820283011164010000000082111715610b0757600080fd5b505092919050505082815181101515610b1c57fe5b9060200190602002015173ffffffffffffffffffffffffffffffffffffffff1663604952e06040518163ffffffff167c0100000000000000000000000000000000000000000000000000000000028152600401602060405180830381600087803b158015610b8957600080fd5b505af1158015610b9d573d6000803e3d6000fd5b505050506040513d6020811015610bb357600080fd5b810190808051906020019092919050505050919050565b600033848484610bd8612bdb565b808573ffffffffffffffffffffffffffffffffffffffff1673ffffffffffffffffffffffffffffffffffffffff168152602001848152602001838152602001828152602001945050505050604051809103906000f080158015610c3f573d6000803e3d6000fd5b50905060038190806001815401808255809150509060018203906000526020600020016000909192909190916101000a81548173ffffffffffffffffffffffffffffffffffffffff021916908373ffffffffffffffffffffffffffffffffffffffff160217905550508060056000868152602001908152602001600020600085815260200190815260200160002060006101000a81548173ffffffffffffffffffffffffffffffffffffffff021916908373ffffffffffffffffffffffffffffffffffffffff160217905550600460003373ffffffffffffffffffffffffffffffffffffffff1673ffffffffffffffffffffffffffffffffffffffff16815260200190815260200160002060009054906101000a900473ffffffffffffffffffffffffffffffffffffffff1673ffffffffffffffffffffffffffffffffffffffff1663fe42fcde826040518263ffffffff167c0100000000000000000000000000000000000000000000000000000000028152600401808273ffffffffffffffffffffffffffffffffffffffff1673ffffffffffffffffffffffffffffffffffffffff168152602001915050600060405180830381600087803b158015610e0557600080fd5b505af1158015610e19573d6000803e3d6000fd5b5050505050505050565b6000600754905090565b60056020528160005260406000206020528060005260406000206000915091509054906101000a900473ffffffffffffffffffffffffffffffffffffffff1681565b6000805442811515610e7d57fe5b064203905090565b33610e8e612beb565b808273ffffffffffffffffffffffffffffffffffffffff1673ffffffffffffffffffffffffffffffffffffffff168152602001915050604051809103906000f080158015610ee0573d6000803e3d6000fd5b50600460003373ffffffffffffffffffffffffffffffffffffffff1673ffffffffffffffffffffffffffffffffffffffff16815260200190815260200160002060006101000a81548173ffffffffffffffffffffffffffffffffffffffff021916908373ffffffffffffffffffffffffffffffffffffffff16021790555060023390806001815401808255809150509060018203906000526020600020016000909192909190916101000a81548173ffffffffffffffffffffffffffffffffffffffff021916908373ffffffffffffffffffffffffffffffffffffffff16021790555050565b6001600960006101000a81548160ff021916908315150217905550565b600460003373ffffffffffffffffffffffffffffffffffffffff1673ffffffffffffffffffffffffffffffffffffffff16815260200190815260200160002060009054906101000a900473ffffffffffffffffffffffffffffffffffffffff1673ffffffffffffffffffffffffffffffffffffffff1663577780996040518163ffffffff167c0100000000000000000000000000000000000000000000000000000000028152600401600060405180830381600087803b1580156110a657600080fd5b505af11580156110ba573d6000803e3d6000fd5b505050506040513d6000823e3d601f19601f8201168201806040525060208110156110e457600080fd5b8101908080516401000000008111156110fc57600080fd5b8281019050602081018481111561111257600080fd5b815185602082028301116401000000008211171561112f57600080fd5b50509291905050508181518110151561114457fe5b9060200190602002015173ffffffffffffffffffffffffffffffffffffffff166373df91e86040518163ffffffff167c0100000000000000000000000000000000000000000000000000000000028152600401600060405180830381600087803b1580156111b157600080fd5b505af11580156111c5573d6000803e3d6000fd5b5050505050565b8060088190555050565b600080600460003373ffffffffffffffffffffffffffffffffffffffff1673ffffffffffffffffffffffffffffffffffffffff16815260200190815260200160002060009054906101000a900473ffffffffffffffffffffffffffffffffffffffff1673ffffffffffffffffffffffffffffffffffffffff1663577780996040518163ffffffff167c0100000000000000000000000000000000000000000000000000000000028152600401600060405180830381600087803b15801561129c57600080fd5b505af11580156112b0573d6000803e3d6000fd5b505050506040513d6000823e3d601f19601f8201168201806040525060208110156112da57600080fd5b8101908080516401000000008111156112f257600080fd5b8281019050602081018481111561130857600080fd5b815185602082028301116401000000008211171561132557600080fd5b50509291905050505111151561133a57600080fd5b600090505b600460003373ffffffffffffffffffffffffffffffffffffffff1673ffffffffffffffffffffffffffffffffffffffff16815260200190815260200160002060009054906101000a900473ffffffffffffffffffffffffffffffffffffffff1673ffffffffffffffffffffffffffffffffffffffff1663577780996040518163ffffffff167c0100000000000000000000000000000000000000000000000000000000028152600401600060405180830381600087803b15801561140257600080fd5b505af1158015611416573d6000803e3d6000fd5b505050506040513d6000823e3d601f19601f82011682018060405250602081101561144057600080fd5b81019080805164010000000081111561145857600080fd5b8281019050602081018481111561146e57600080fd5b815185602082028301116401000000008211171561148b57600080fd5b50509291905050505181101561197357600660009054906101000a900473ffffffffffffffffffffffffffffffffffffffff1673ffffffffffffffffffffffffffffffffffffffff16636add9cf533600460003373ffffffffffffffffffffffffffffffffffffffff1673ffffffffffffffffffffffffffffffffffffffff16815260200190815260200160002060009054906101000a900473ffffffffffffffffffffffffffffffffffffffff1673ffffffffffffffffffffffffffffffffffffffff1663577780996040518163ffffffff167c0100000000000000000000000000000000000000000000000000000000028152600401600060405180830381600087803b15801561159d57600080fd5b505af11580156115b1573d6000803e3d6000fd5b505050506040513d6000823e3d601f19601f8201168201806040525060208110156115db57600080fd5b8101908080516401000000008111156115f357600080fd5b8281019050602081018481111561160957600080fd5b815185602082028301116401000000008211171561162657600080fd5b50509291905050508481518110151561163b57fe5b9060200190602002015173ffffffffffffffffffffffffffffffffffffffff16634e71d92d6040518163ffffffff167c0100000000000000000000000000000000000000000000000000000000028152600401602060405180830381600087803b1580156116a857600080fd5b505af11580156116bc573d6000803e3d6000fd5b505050506040513d60208110156116d257600080fd5b81019080805190602001909291905050506040518363ffffffff167c0100000000000000000000000000000000000000000000000000000000028152600401808373ffffffffffffffffffffffffffffffffffffffff1673ffffffffffffffffffffffffffffffffffffffff16815260200182815260200192505050600060405180830381600087803b15801561176857600080fd5b505af115801561177c573d6000803e3d6000fd5b50505050600460003373ffffffffffffffffffffffffffffffffffffffff1673ffffffffffffffffffffffffffffffffffffffff16815260200190815260200160002060009054906101000a900473ffffffffffffffffffffffffffffffffffffffff1673ffffffffffffffffffffffffffffffffffffffff1663577780996040518163ffffffff167c0100000000000000000000000000000000000000000000000000000000028152600401600060405180830381600087803b15801561184357600080fd5b505af1158015611857573d6000803e3d6000fd5b505050506040513d6000823e3d601f19601f82011682018060405250602081101561188157600080fd5b81019080805164010000000081111561189957600080fd5b828101905060208101848111156118af57600080fd5b81518560208202830111640100000000821117156118cc57600080fd5b5050929190505050818151811015156118e157fe5b9060200190602002015173ffffffffffffffffffffffffffffffffffffffff16639414774c6040518163ffffffff167c0100000000000000000000000000000000000000000000000000000000028152600401600060405180830381600087803b15801561194e57600080fd5b505af1158015611962573d6000803e3d6000fd5b50505050808060010191505061133f565b50565b600080600090505b600380549050811015611a745760038181548110151561199a57fe5b9060005260206000200160009054906101000a900473ffffffffffffffffffffffffffffffffffffffff1673ffffffffffffffffffffffffffffffffffffffff1663604952e06040518163ffffffff167c0100000000000000000000000000000000000000000000000000000000028152600401602060405180830381600087803b158015611a2857600080fd5b505af1158015611a3c573d6000803e3d6000fd5b505050506040513d6020811015611a5257600080fd5b810190808051906020019092919050505082019150808060010191505061197e565b5090565b600080600090505b600380549050811015611b7657600381815481101515611a9c57fe5b9060005260206000200160009054906101000a900473ffffffffffffffffffffffffffffffffffffffff1673ffffffffffffffffffffffffffffffffffffffff166352042d716040518163ffffffff167c0100000000000000000000000000000000000000000000000000000000028152600401602060405180830381600087803b158015611b2a57600080fd5b505af1158015611b3e573d6000803e3d6000fd5b505050506040513d6020811015611b5457600080fd5b8101908080519060200190929190505050820191508080600101915050611a80565b5090565b6000600660009054906101000a900473ffffffffffffffffffffffffffffffffffffffff1673ffffffffffffffffffffffffffffffffffffffff166370a08231836040518263ffffffff167c0100000000000000000000000000000000000000000000000000000000028152600401808273ffffffffffffffffffffffffffffffffffffffff1673ffffffffffffffffffffffffffffffffffffffff168152602001915050602060405180830381600087803b158015611c3957600080fd5b505af1158015611c4d573d6000803e3d6000fd5b505050506040513d6020811015611c6357600080fd5b81019080805190602001909291905050509050919050565b6000600460003373ffffffffffffffffffffffffffffffffffffffff1673ffffffffffffffffffffffffffffffffffffffff16815260200190815260200160002060009054906101000a900473ffffffffffffffffffffffffffffffffffffffff1673ffffffffffffffffffffffffffffffffffffffff1663577780996040518163ffffffff167c0100000000000000000000000000000000000000000000000000000000028152600401600060405180830381600087803b158015611d4057600080fd5b505af1158015611d54573d6000803e3d6000fd5b505050506040513d6000823e3d601f19601f820116820180604052506020811015611d7e57600080fd5b810190808051640100000000811115611d9657600080fd5b82810190506020810184811115611dac57600080fd5b8151856020820283011164010000000082111715611dc957600080fd5b505092919050505082815181101515611dde57fe5b9060200190602002015173ffffffffffffffffffffffffffffffffffffffff1663604952e06040518163ffffffff167c0100000000000000000000000000000000000000000000000000000000028152600401602060405180830381600087803b158015611e4b57600080fd5b505af1158015611e5f573d6000803e3d6000fd5b505050506040513d6020811015611e7557600080fd5b81019080805190602001909291905050509050919050565b600080600080600080600080600096507fffffffffffffffffffffffffffffffffffffffffffffffffffffffffffffffff9550889750600094505b6003805490508510156120fb576000600386815481101515611ee657fe5b9060005260206000200160009054906101000a900473ffffffffffffffffffffffffffffffffffffffff1673ffffffffffffffffffffffffffffffffffffffff1663604952e06040518163ffffffff167c0100000000000000000000000000000000000000000000000000000000028152600401602060405180830381600087803b158015611f7457600080fd5b505af1158015611f88573d6000803e3d6000fd5b505050506040513d6020811015611f9e57600080fd5b810190808051906020019092919050505011156120ee57600093506000925060009150600385815481101515611fd057fe5b9060005260206000200160009054906101000a900473ffffffffffffffffffffffffffffffffffffffff1673ffffffffffffffffffffffffffffffffffffffff1663490d76066040518163ffffffff167c01000000000000000000000000000000000000000000000000000000000281526004016040805180830381600087803b15801561205d57600080fd5b505af1158015612071573d6000803e3d6000fd5b505050506040513d604081101561208757600080fd5b8101908080519060200190929190805190602001909291905050508094508195505050838b11156120bc57838b0391506120c2565b8a840391505b828a11156120d657828a03820191506120de565b898303820191505b858210156120ed578195508496505b5b8480600101955050611ec8565b60038781548110151561210a57fe5b9060005260206000200160009054906101000a900473ffffffffffffffffffffffffffffffffffffffff1673ffffffffffffffffffffffffffffffffffffffff1663604952e06040518163ffffffff167c0100000000000000000000000000000000000000000000000000000000028152600401602060405180830381600087803b15801561219857600080fd5b505af11580156121ac573d6000803e3d6000fd5b505050506040513d60208110156121c257600080fd5b8101908080519060200190929190505050905087811015156122cb576003878154811015156121ed57fe5b9060005260206000200160009054906101000a900473ffffffffffffffffffffffffffffffffffffffff1673ffffffffffffffffffffffffffffffffffffffff16631a8cedce896040518263ffffffff167c010000000000000000000000000000000000000000000000000000000002815260040180828152602001915050602060405180830381600087803b15801561228657600080fd5b505af115801561229a573d6000803e3d6000fd5b505050506040513d60208110156122b057600080fd5b810190808051906020019092919050505050600097506123c1565b6003878154811015156122da57fe5b9060005260206000200160009054906101000a900473ffffffffffffffffffffffffffffffffffffffff1673ffffffffffffffffffffffffffffffffffffffff16631a8cedce826040518263ffffffff167c010000000000000000000000000000000000000000000000000000000002815260040180828152602001915050602060405180830381600087803b15801561237357600080fd5b505af1158015612387573d6000803e3d6000fd5b505050506040513d602081101561239d57600080fd5b81019080805190602001909291905050505080880397506123bf8b8b8a611e8d565b505b505050505050509392505050565b60008054905090565b6000600960009054906101000a900460ff16905090565b600060056000858152602001908152602001600020600084815260200190815260200160002060009054906101000a900473ffffffffffffffffffffffffffffffffffffffff1673ffffffffffffffffffffffffffffffffffffffff16631a8cedce836040518263ffffffff167c010000000000000000000000000000000000000000000000000000000002815260040180828152602001915050602060405180830381600087803b1580156124a457600080fd5b505af11580156124b8573d6000803e3d6000fd5b505050506040513d60208110156124ce57600080fd5b810190808051906020019092919050505090509392505050565b6000600460003373ffffffffffffffffffffffffffffffffffffffff1673ffffffffffffffffffffffffffffffffffffffff16815260200190815260200160002060009054906101000a900473ffffffffffffffffffffffffffffffffffffffff1673ffffffffffffffffffffffffffffffffffffffff1663577780996040518163ffffffff167c0100000000000000000000000000000000000000000000000000000000028152600401600060405180830381600087803b1580156125ad57600080fd5b505af11580156125c1573d6000803e3d6000fd5b505050506040513d6000823e3d601f19601f8201168201806040525060208110156125eb57600080fd5b81019080805164010000000081111561260357600080fd5b8281019050602081018481111561261957600080fd5b815185602082028301116401000000008211171561263657600080fd5b5050929190505050600081518110151561264c57fe5b9060200190602002015173ffffffffffffffffffffffffffffffffffffffff1663da16f91d6040518163ffffffff167c0100000000000000000000000000000000000000000000000000000000028152600401602060405180830381600087803b1580156126b957600080fd5b505af11580156126cd573d6000803e3d6000fd5b505050506040513d60208110156126e357600080fd5b8101908080519060200190929190505050905090565b6060600460003373ffffffffffffffffffffffffffffffffffffffff1673ffffffffffffffffffffffffffffffffffffffff16815260200190815260200160002060009054906101000a900473ffffffffffffffffffffffffffffffffffffffff1673ffffffffffffffffffffffffffffffffffffffff1663577780996040518163ffffffff167c0100000000000000000000000000000000000000000000000000000000028152600401600060405180830381600087803b1580156127be57600080fd5b505af11580156127d2573d6000803e3d6000fd5b505050506040513d6000823e3d601f19601f8201168201806040525060208110156127fc57600080fd5b81019080805164010000000081111561281457600080fd5b8281019050602081018481111561282a57600080fd5b815185602082028301116401000000008211171561284757600080fd5b5050929190505050905090565b600460003373ffffffffffffffffffffffffffffffffffffffff1673ffffffffffffffffffffffffffffffffffffffff16815260200190815260200160002060009054906101000a900473ffffffffffffffffffffffffffffffffffffffff1673ffffffffffffffffffffffffffffffffffffffff1663577780996040518163ffffffff167c0100000000000000000000000000000000000000000000000000000000028152600401600060405180830381600087803b15801561291757600080fd5b505af115801561292b573d6000803e3d6000fd5b505050506040513d6000823e3d601f19601f82011682018060405250602081101561295557600080fd5b81019080805164010000000081111561296d57600080fd5b8281019050602081018481111561298357600080fd5b81518560208202830111640100000000821117156129a057600080fd5b5050929190505050818151811015156129b557fe5b9060200190602002015173ffffffffffffffffffffffffffffffffffffffff166399ee780b6040518163ffffffff167c0100000000000000000000000000000000000000000000000000000000028152600401600060405180830381600087803b158015612a2257600080fd5b505af1158015612a36573d6000803e3d6000fd5b5050505050565b600060056000848152602001908152602001600020600083815260200190815260200160002060009054906101000a900473ffffffffffffffffffffffffffffffffffffffff1673ffffffffffffffffffffffffffffffffffffffff1663604952e06040518163ffffffff167c0100000000000000000000000000000000000000000000000000000000028152600401602060405180830381600087803b158015612ae757600080fd5b505af1158015612afb573d6000803e3d6000fd5b505050506040513d6020811015612b1157600080fd5b8101908080519060200190929190505050905092915050565b600381815481101515612b3957fe5b906000526020600020016000915054906101000a900473ffffffffffffffffffffffffffffffffffffffff1681565b600060056000848152602001908152602001600020600083815260200190815260200160002060009054906101000a900473ffffffffffffffffffffffffffffffffffffffff16905092915050565b6000805460005442811515612bc857fe5b06420301905090565b6000600854905090565b604051610cfc80612bfc83390190565b6040516103ab806138f8833901905600608060405234801561001057600080fd5b50604051608080610cfc8339810180604052810190808051906020019092919080519060200190929190805190602001909291908051906020019092919050505083600360006101000a81548173ffffffffffffffffffffffffffffffffffffffff021916908373ffffffffffffffffffffffffffffffffffffffff16021790555080600581905550336000806101000a81548173ffffffffffffffffffffffffffffffffffffffff021916908373ffffffffffffffffffffffffffffffffffffffff1602179055508260086000018190555081600860010181905550806004819055504260078190555050505050610bee8061010e6000396000f3006080604052600436106100af576000357c0100000000000000000000000000000000000000000000000000000000900463ffffffff1680631a8cedce146100b4578063490d7606146100f55780634e71d92d1461012757806352042d7114610152578063604952e01461017d57806373df91e8146101a85780639414774c146101bf57806399ee780b146101d6578063d6742899146101ed578063d8306db61461021a578063da16f91d14610251575b600080fd5b3480156100c057600080fd5b506100df6004803603810190808035906020019092919050505061027c565b6040518082815260200191505060405180910390f35b34801561010157600080fd5b5061010a61064a565b604051808381526020018281526020019250505060405180910390f35b34801561013357600080fd5b5061013c610661565b6040518082815260200191505060405180910390f35b34801561015e57600080fd5b506101676108fe565b6040518082815260200191505060405180910390f35b34801561018957600080fd5b50610192610908565b6040518082815260200191505060405180910390f35b3480156101b457600080fd5b506101bd6109e6565b005b3480156101cb57600080fd5b506101d46109f0565b005b3480156101e257600080fd5b506101eb610ab8565b005b3480156101f957600080fd5b5061021860048036038101908080359060200190929190505050610ac3565b005b34801561022657600080fd5b5061024f6004803603810190808035906020019092919080359060200190929190505050610ad4565b005b34801561025d57600080fd5b50610266610aec565b6040518082815260200191505060405180910390f35b60008060009054906101000a900473ffffffffffffffffffffffffffffffffffffffff1673ffffffffffffffffffffffffffffffffffffffff163373ffffffffffffffffffffffffffffffffffffffff16141515610342576040517f08c379a000000000000000000000000000000000000000000000000000000000815260040180806020018281038252600d8152602001807f4e6f207065726d697373696f6e0000000000000000000000000000000000000081525060200191505060405180910390fd5b60055482600660008060009054906101000a900473ffffffffffffffffffffffffffffffffffffffff1673ffffffffffffffffffffffffffffffffffffffff1663fbd3f7bd6040518163ffffffff167c0100000000000000000000000000000000000000000000000000000000028152600401602060405180830381600087803b1580156103cf57600080fd5b505af11580156103e3573d6000803e3d6000fd5b505050506040513d60208110156103f957600080fd5b81019080805190602001909291905050508152602001908152602001600020540111151515610490576040517f08c379a00000000000000000000000000000000000000000000000000000000081526004018080602001828103825260108152602001807f4e6f206361706163697479206c6566740000000000000000000000000000000081525060200191505060405180910390fd5b81600660008060009054906101000a900473ffffffffffffffffffffffffffffffffffffffff1673ffffffffffffffffffffffffffffffffffffffff1663fbd3f7bd6040518163ffffffff167c0100000000000000000000000000000000000000000000000000000000028152600401602060405180830381600087803b15801561051a57600080fd5b505af115801561052e573d6000803e3d6000fd5b505050506040513d602081101561054457600080fd5b8101908080519060200190929190505050815260200190815260200160002060008282540192505081905550600660008060009054906101000a900473ffffffffffffffffffffffffffffffffffffffff1673ffffffffffffffffffffffffffffffffffffffff1663fbd3f7bd6040518163ffffffff167c0100000000000000000000000000000000000000000000000000000000028152600401602060405180830381600087803b1580156105f957600080fd5b505af115801561060d573d6000803e3d6000fd5b505050506040513d602081101561062357600080fd5b81019080805190602001909291905050508152602001908152602001600020549050919050565b600080600860000154600860010154915091509091565b6000806000806000809054906101000a900473ffffffffffffffffffffffffffffffffffffffff1673ffffffffffffffffffffffffffffffffffffffff166391ad27b46040518163ffffffff167c0100000000000000000000000000000000000000000000000000000000028152600401602060405180830381600087803b1580156106ec57600080fd5b505af1158015610700573d6000803e3d6000fd5b505050506040513d602081101561071657600080fd5b8101908080519060200190929190505050925082600754420381151561073857fe5b049150600090505b818110156108f8576000809054906101000a900473ffffffffffffffffffffffffffffffffffffffff1673ffffffffffffffffffffffffffffffffffffffff166322d940b36040518163ffffffff167c0100000000000000000000000000000000000000000000000000000000028152600401602060405180830381600087803b1580156107cd57600080fd5b505af11580156107e1573d6000803e3d6000fd5b505050506040513d60208110156107f757600080fd5b8101908080519060200190929190505050600660008585026007540181526020019081526020016000205402840193506000809054906101000a900473ffffffffffffffffffffffffffffffffffffffff1673ffffffffffffffffffffffffffffffffffffffff1663fec5679c6040518163ffffffff167c0100000000000000000000000000000000000000000000000000000000028152600401602060405180830381600087803b1580156108ac57600080fd5b505af11580156108c0573d6000803e3d6000fd5b505050506040513d60208110156108d657600080fd5b8101908080519060200190929190505050840193508080600101915050610740565b50505090565b6000600554905090565b6000600660008060009054906101000a900473ffffffffffffffffffffffffffffffffffffffff1673ffffffffffffffffffffffffffffffffffffffff1663fbd3f7bd6040518163ffffffff167c0100000000000000000000000000000000000000000000000000000000028152600401602060405180830381600087803b15801561099357600080fd5b505af11580156109a7573d6000803e3d6000fd5b505050506040513d60208110156109bd57600080fd5b810190808051906020019092919050505081526020019081526020016000205460055403905090565b6000600581905550565b6000809054906101000a900473ffffffffffffffffffffffffffffffffffffffff1673ffffffffffffffffffffffffffffffffffffffff16633356dc276040518163ffffffff167c0100000000000000000000000000000000000000000000000000000000028152600401602060405180830381600087803b158015610a7557600080fd5b505af1158015610a89573d6000803e3d6000fd5b505050506040513d6020811015610a9f57600080fd5b8101908080519060200190929190505050600781905550565b600454600581905550565b806005819055508060048190555050565b81600860000181905550806008600101819055505050565b60008060009054906101000a900473ffffffffffffffffffffffffffffffffffffffff1673ffffffffffffffffffffffffffffffffffffffff166391ad27b46040518163ffffffff167c0100000000000000000000000000000000000000000000000000000000028152600401602060405180830381600087803b158015610b7357600080fd5b505af1158015610b87573d6000803e3d6000fd5b505050506040513d6020811015610b9d57600080fd5b81019080805190602001909291905050506007544203811515610bbc57fe5b049050905600a165627a7a72305820d63990005158f177df223f13d2da353d6370c7658fc56b7fc73913dcc878a9130029608060405234801561001057600080fd5b506040516020806103ab83398101806040528101908080519060200190929190505050336000806101000a81548173ffffffffffffffffffffffffffffffffffffffff021916908373ffffffffffffffffffffffffffffffffffffffff16021790555080600160006101000a81548173ffffffffffffffffffffffffffffffffffffffff021916908373ffffffffffffffffffffffffffffffffffffffff160217905550506102e7806100c46000396000f30060806040526004361061004c576000357c0100000000000000000000000000000000000000000000000000000000900463ffffffff1680635777809914610051578063fe42fcde146100bd575b600080fd5b34801561005d57600080fd5b50610066610100565b6040518080602001828103825283818151815260200191508051906020019060200280838360005b838110156100a957808201518184015260208101905061008e565b505050509050019250505060405180910390f35b3480156100c957600080fd5b506100fe600480360381019080803573ffffffffffffffffffffffffffffffffffffffff16906020019092919050505061018e565b005b6060600280548060200260200160405190810160405280929190818152602001828054801561018457602002820191906000526020600020905b8160009054906101000a900473ffffffffffffffffffffffffffffffffffffffff1673ffffffffffffffffffffffffffffffffffffffff168152602001906001019080831161013a575b5050505050905090565b6000809054906101000a900473ffffffffffffffffffffffffffffffffffffffff1673ffffffffffffffffffffffffffffffffffffffff163373ffffffffffffffffffffffffffffffffffffffff16141515610252576040517f08c379a000000000000000000000000000000000000000000000000000000000815260040180806020018281038252600d8152602001807f4e6f207065726d697373696f6e0000000000000000000000000000000000000081525060200191505060405180910390fd5b60028190806001815401808255809150509060018203906000526020600020016000909192909190916101000a81548173ffffffffffffffffffffffffffffffffffffffff021916908373ffffffffffffffffffffffffffffffffffffffff16021790555050505600a165627a7a723058207d66965f2aaf4300b411afadad403bb464ea143d9bf65c3e34e20bbde53eb92b0029a165627a7a72305820c1c7b4aa7e0f7657d203b78882bf67d2e935121d7e1d532295cecffeebfa0aec0029608060405234801561001057600080fd5b50620186a0600081905550620186a0600260003373ffffffffffffffffffffffffffffffffffffffff1673ffffffffffffffffffffffffffffffffffffffff1681526020019081526020016000208190555033600160006101000a81548173ffffffffffffffffffffffffffffffffffffffff021916908373ffffffffffffffffffffffffffffffffffffffff160217905550611029806100b26000396000f3006080604052600436106100c5576000357c0100000000000000000000000000000000000000000000000000000000900463ffffffff168063095ea7b3146100ca57806313982e371461012f578063179d375c1461015a57806318160ddd1461018757806323b872dd146101b257806327e235e3146102375780636add9cf51461028e57806370a08231146102db5780638da5cb5b14610332578063a3f4df7e14610389578063a9059cbb14610419578063dd62ed3e1461047e578063f76f8d78146104f5575b600080fd5b3480156100d657600080fd5b50610115600480360381019080803573ffffffffffffffffffffffffffffffffffffffff16906020019092919080359060200190929190505050610585565b604051808215151515815260200191505060405180910390f35b34801561013b57600080fd5b50610144610677565b6040518082815260200191505060405180910390f35b34801561016657600080fd5b506101856004803603810190808035906020019092919050505061067e565b005b34801561019357600080fd5b5061019c6107c4565b6040518082815260200191505060405180910390f35b3480156101be57600080fd5b5061021d600480360381019080803573ffffffffffffffffffffffffffffffffffffffff169060200190929190803573ffffffffffffffffffffffffffffffffffffffff169060200190929190803590602001909291905050506107ca565b604051808215151515815260200191505060405180910390f35b34801561024357600080fd5b50610278600480360381019080803573ffffffffffffffffffffffffffffffffffffffff169060200190929190505050610b36565b6040518082815260200191505060405180910390f35b34801561029a57600080fd5b506102d9600480360381019080803573ffffffffffffffffffffffffffffffffffffffff16906020019092919080359060200190929190505050610b4e565b005b3480156102e757600080fd5b5061031c600480360381019080803573ffffffffffffffffffffffffffffffffffffffff169060200190929190505050610cd3565b6040518082815260200191505060405180910390f35b34801561033e57600080fd5b50610347610d1c565b604051808273ffffffffffffffffffffffffffffffffffffffff1673ffffffffffffffffffffffffffffffffffffffff16815260200191505060405180910390f35b34801561039557600080fd5b5061039e610d42565b6040518080602001828103825283818151815260200191508051906020019080838360005b838110156103de5780820151818401526020810190506103c3565b50505050905090810190601f16801561040b5780820380516001836020036101000a031916815260200191505b509250505060405180910390f35b34801561042557600080fd5b50610464600480360381019080803573ffffffffffffffffffffffffffffffffffffffff16906020019092919080359060200190929190505050610d7b565b604051808215151515815260200191505060405180910390f35b34801561048a57600080fd5b506104df600480360381019080803573ffffffffffffffffffffffffffffffffffffffff169060200190929190803573ffffffffffffffffffffffffffffffffffffffff169060200190929190505050610f3d565b6040518082815260200191505060405180910390f35b34801561050157600080fd5b5061050a610fc4565b6040518080602001828103825283818151815260200191508051906020019080838360005b8381101561054a57808201518184015260208101905061052f565b50505050905090810190601f1680156105775780820380516001836020036101000a031916815260200191505b509250505060405180910390f35b600081600360003373ffffffffffffffffffffffffffffffffffffffff1673ffffffffffffffffffffffffffffffffffffffff16815260200190815260200160002060008573ffffffffffffffffffffffffffffffffffffffff1673ffffffffffffffffffffffffffffffffffffffff168152602001908152602001600020819055508273ffffffffffffffffffffffffffffffffffffffff163373ffffffffffffffffffffffffffffffffffffffff167f8c5be1e5ebec7d5bd14f71427d1e84f3dd0314c0f7b2291e5b200ac8c7c3b925846040518082815260200191505060405180910390a36001905092915050565b620186a081565b3373ffffffffffffffffffffffffffffffffffffffff16600160009054906101000a900473ffffffffffffffffffffffffffffffffffffffff1673ffffffffffffffffffffffffffffffffffffffff16141515610743576040517f08c379a000000000000000000000000000000000000000000000000000000000815260040180806020018281038252600a8152602001807f4e6f20416363657373210000000000000000000000000000000000000000000081525060200191505060405180910390fd5b8060008082825401925050819055508060026000600160009054906101000a900473ffffffffffffffffffffffffffffffffffffffff1673ffffffffffffffffffffffffffffffffffffffff1673ffffffffffffffffffffffffffffffffffffffff1681526020019081526020016000206000828254019250508190555050565b60005481565b600080600360008673ffffffffffffffffffffffffffffffffffffffff1673ffffffffffffffffffffffffffffffffffffffff16815260200190815260200160002060008573ffffffffffffffffffffffffffffffffffffffff1673ffffffffffffffffffffffffffffffffffffffff16815260200190815260200160002054905082600260008773ffffffffffffffffffffffffffffffffffffffff1673ffffffffffffffffffffffffffffffffffffffff1681526020019081526020016000205410151515610903576040517f08c379a000000000000000000000000000000000000000000000000000000000815260040180806020018281038252601c8152602001807f53656e64657220686173206e6f7420656e6f7567687420546f6b656e0000000081525060200191505060405180910390fd5b8281101515156109a1576040517f08c379a00000000000000000000000000000000000000000000000000000000081526004018080602001828103825260248152602001807f5468657265206973206e6f20616c6c6f77616e636520666f722074686973207681526020017f616c75650000000000000000000000000000000000000000000000000000000081525060400191505060405180910390fd5b82600260008673ffffffffffffffffffffffffffffffffffffffff1673ffffffffffffffffffffffffffffffffffffffff1681526020019081526020016000206000828254019250508190555082600260008773ffffffffffffffffffffffffffffffffffffffff1673ffffffffffffffffffffffffffffffffffffffff1681526020019081526020016000206000828254039250508190555082600360008773ffffffffffffffffffffffffffffffffffffffff1673ffffffffffffffffffffffffffffffffffffffff16815260200190815260200160002060008673ffffffffffffffffffffffffffffffffffffffff1673ffffffffffffffffffffffffffffffffffffffff168152602001908152602001600020600082825403925050819055508373ffffffffffffffffffffffffffffffffffffffff168573ffffffffffffffffffffffffffffffffffffffff167fddf252ad1be2c89b69c2b068fc378daa952ba7f163c4a11628f55a4df523b3ef856040518082815260200191505060405180910390a360019150509392505050565b60026020528060005260406000206000915090505481565b600160009054906101000a900473ffffffffffffffffffffffffffffffffffffffff1673ffffffffffffffffffffffffffffffffffffffff163373ffffffffffffffffffffffffffffffffffffffff16141515610c13576040517f08c379a000000000000000000000000000000000000000000000000000000000815260040180806020018281038252600e8152602001807f4e6f207065726d697373696f6e2100000000000000000000000000000000000081525060200191505060405180910390fd5b8060026000600160009054906101000a900473ffffffffffffffffffffffffffffffffffffffff1673ffffffffffffffffffffffffffffffffffffffff1673ffffffffffffffffffffffffffffffffffffffff1681526020019081526020016000206000828254039250508190555080600260008473ffffffffffffffffffffffffffffffffffffffff1673ffffffffffffffffffffffffffffffffffffffff168152602001908152602001600020600082825401925050819055505050565b6000600260008373ffffffffffffffffffffffffffffffffffffffff1673ffffffffffffffffffffffffffffffffffffffff168152602001908152602001600020549050919050565b600160009054906101000a900473ffffffffffffffffffffffffffffffffffffffff1681565b6040805190810160405280600b81526020017f426174746572436861696e00000000000000000000000000000000000000000081525081565b600081600260003373ffffffffffffffffffffffffffffffffffffffff1673ffffffffffffffffffffffffffffffffffffffff1681526020019081526020016000205410151515610e34576040517f08c379a000000000000000000000000000000000000000000000000000000000815260040180806020018281038252601c8152602001807f53656e64657220686173206e6f7420656e6f7567687420546f6b656e0000000081525060200191505060405180910390fd5b81600260003373ffffffffffffffffffffffffffffffffffffffff1673ffffffffffffffffffffffffffffffffffffffff1681526020019081526020016000206000828254039250508190555081600260008573ffffffffffffffffffffffffffffffffffffffff1673ffffffffffffffffffffffffffffffffffffffff168152602001908152602001600020600082825401925050819055508273ffffffffffffffffffffffffffffffffffffffff163373ffffffffffffffffffffffffffffffffffffffff167fddf252ad1be2c89b69c2b068fc378daa952ba7f163c4a11628f55a4df523b3ef846040518082815260200191505060405180910390a36001905092915050565b6000600360008473ffffffffffffffffffffffffffffffffffffffff1673ffffffffffffffffffffffffffffffffffffffff16815260200190815260200160002060008373ffffffffffffffffffffffffffffffffffffffff1673ffffffffffffffffffffffffffffffffffffffff16815260200190815260200160002054905092915050565b6040805190810160405280600381526020017f4241430000000000000000000000000000000000000000000000000000000000815250815600a165627a7a72305820fdf05535b1e3d58f763ff9e807596ae9780e83e501d03faf16bf86609aedb4fd0029",
  "source": "pragma solidity ^0.4.24;\n\ncontract Home {\n    uint interval = 10;\n    address owner;\n    address[] prosumerAddress;\n    Storage[] public storages;\n    mapping(address => Prosumer) prosumer;\n    mapping(uint => mapping(uint => Storage)) public storageGrid;\n    TokenBase tokenBase;\n    uint tokenForOneCapacity = 1;\n    uint pauschale = 10;\n\n    bool on = false;\n\n    constructor() public {\n        owner = msg.sender;\n        tokenBase = new TokenBase();\n    }\n\n    function setOn() public{\n      on = true;\n    }\n\n    function getOn() public view returns(bool){\n      return on;\n    }\n\n    function getCapaOfMyStorage(uint _stNbr) public view returns(uint){\n        return prosumer[msg.sender].getStorages()[_stNbr].getUnusedCapaInNextInterval();\n    }\n\n    function getNbrOfClaims() public view returns(uint){\n         return prosumer[msg.sender].getStorages()[0].getNbrOfClaims();\n    }\n\n    function getPauschale() public view returns(uint){\n        return pauschale;\n    }\n\n    function getUnusedCapaInNextInterval() public view returns(uint value){\n        for(uint i = 0; i < storages.length; i++){\n            value += storages[i].getUnusedCapaInNextInterval();\n        }\n    }\n\n    function setPauschale(uint _value) public {\n        pauschale = _value;\n    }\n\n    function getTokenForOneCapacity() public view returns (uint){\n        return tokenForOneCapacity;\n    }\n\n    function balanceOf(address _owner) public view returns (uint256 balance) {\n        return tokenBase.balanceOf(_owner);\n    }\n\n    function claim() public {\n        require(prosumer[msg.sender].getStorages().length > 0);\n        for(uint i = 0; i <  prosumer[msg.sender].getStorages().length; i++){\n            tokenBase.giveTokenFromTo(msg.sender, prosumer[msg.sender].getStorages()[i].claim());\n            prosumer[msg.sender].getStorages()[i].setLastClaimedToNow();\n        }\n    }\n\n    //setter\n    function useCapaInNextIntervalFromXY(uint _x, uint _y, uint _value) public returns(uint capaLeft) {\n        return storageGrid[_x][_y].useCapaInNextInterval(_value);\n    }\n\n    function getMaxCapa() public view returns(uint maxCapa) {\n        for(uint i = 0; i < storages.length; i++){\n            maxCapa += storages[i].getCapa();\n        }\n    }\n\n    function changeCapa(uint _stNbr, uint _capa) public {\n        prosumer[msg.sender].getStorages()[_stNbr].changeCapa(_capa);\n    }\n\n    function getMyStorages() public view returns(Storage[]) {\n        return prosumer[msg.sender].getStorages();\n    }\n\n    function getInterval() public view returns(uint){\n        return interval;\n    }\n\n    function setMyStorageOffline(uint _stNbr) public {\n        prosumer[msg.sender].getStorages()[_stNbr].setOffline();\n    }\n\n    function setMyStorageOnline(uint _stNbr) public {\n        prosumer[msg.sender].getStorages()[_stNbr].setOnline();\n    }\n\n    function useCapaInNextIntervalForXY(uint _x, uint _y, uint _value) public returns(uint valueLeft){\n        uint index = 0;\n        uint shortest = uint(int(-1));\n        valueLeft = _value;\n        for(uint i = 0; i < storages.length; i++){\n            if(storages[i].getUnusedCapaInNextInterval() > 0){\n                uint x = 0;\n                uint y = 0;\n                uint len = 0;\n                (x, y) = storages[i].getXY();\n                //Abs\n                if(_x > x)\n                    len = _x - x;\n                else\n                    len = x - _x;\n                if(_y > y)\n                    len += _y - y;\n                else\n                    len += y - _y;\n                if(len < shortest){\n                    shortest = len;\n                    index = i;\n                }\n            }\n        }\n        uint space = storages[index].getUnusedCapaInNextInterval();\n        if(space >= valueLeft){\n            storages[index].useCapaInNextInterval(valueLeft);\n            valueLeft = 0;\n        }\n        else {\n            storages[index].useCapaInNextInterval(space);\n            valueLeft -= space;\n            useCapaInNextIntervalForXY(_x, _y, valueLeft);\n        }\n\n    }\n\n    //New\n\n    function newProsumer() public {\n        prosumer[msg.sender] = new Prosumer(msg.sender);\n        prosumerAddress.push(msg.sender);\n    }\n\n    function addNewStorage(uint _x, uint _y, uint _capacity) public {\n        Storage newStorage = new Storage(msg.sender, _x, _y, _capacity);\n        storages.push(newStorage);\n        storageGrid[_x][_y] = newStorage;\n        prosumer[msg.sender].addNewStorage(address(newStorage));\n    }\n\n    // Intervall\n\n    function getActualInterval() public view returns(uint) {\n        return now - (now % interval);\n    }\n\n    function getNextInterval() public view returns(uint) {\n        return now - (now % interval) + interval;\n    }\n\n    //Getter\n    function getStorageFromXY(uint _x, uint _y) public view returns(Storage) {\n        return storageGrid[_x][_y];\n    }\n\n    function getUnusedCapaInNextInterval(uint _x, uint _y) public view returns(uint) {\n        return storageGrid[_x][_y].getUnusedCapaInNextInterval();\n    }\n\n    function getMyUnusedCapaInNextInterval(uint _x) public view returns(uint){\n      prosumer[msg.sender].getStorages()[_x].getUnusedCapaInNextInterval();\n    }\n\n\n\n}\n\ncontract Prosumer {\n    Home home;\n    address owner;\n    Storage[] storages;\n\n\n    constructor(address _owner) public{\n        home = Home(msg.sender);\n        owner = _owner;\n    }\n\n    function addNewStorage(address _storage) public {\n        require(msg.sender == address(home), \"No permission\");\n        storages.push(Storage(_storage));\n    }\n\n    function getStorages() public view returns (Storage[]){\n        return storages;\n    }\n\n}\n\ncontract Storage {\n    Home home;\n    uint x;\n    uint y;\n    Prosumer owner;\n    uint maxCapa;\n    uint capa;\n    mapping(uint => uint) usedCapaInInterval;\n    uint lastClaimed;\n\n    struct Coordinates{\n        uint x;\n        uint y;\n    }\n\n    Coordinates coordinates;\n\n\n    constructor(address _owner, uint _x, uint _y, uint _capa) public{\n        owner = Prosumer(_owner);\n        capa = _capa;\n        home = Home(msg.sender);\n        coordinates.x = _x;\n        coordinates.y = _y;\n        maxCapa = _capa;\n        lastClaimed = now;\n    }\n\n    function setOffline() public {\n        capa = 0;\n    }\n\n    function setOnline() public {\n        capa = maxCapa;\n    }\n\n    function changeCapa(uint _capa) public{\n        capa = _capa;\n        maxCapa = _capa;\n    }\n\n    function changeXY(uint _x, uint _y) public{\n        coordinates.x = _x;\n        coordinates.y = _y;\n    }\n\n    function getXY() public view returns(uint, uint) {\n        return (coordinates.x, coordinates.y);\n    }\n\n    function getCapa() public view returns(uint){\n        return capa;\n    }\n\n    function useCapaInNextInterval(uint _value) public returns(uint _free){\n        require(msg.sender == address(home), \"No permission\");\n        require(usedCapaInInterval[home.getNextInterval()] + _value <= capa, \"No capacity left\");\n        usedCapaInInterval[home.getNextInterval()] += _value;\n        return usedCapaInInterval[home.getNextInterval()];\n    }\n\n    function getUnusedCapaInNextInterval() public view returns(uint _free) {\n        return capa - usedCapaInInterval[home.getNextInterval()];\n    }\n\n    function setLastClaimedToNow() public{\n        lastClaimed = home.getActualInterval();\n    }\n\n    function getNbrOfClaims() public view returns(uint value) {\n        value = (now - lastClaimed) / home.getInterval();\n    }\n\n    function claim() public view returns(uint value){\n        uint interval = home.getInterval();\n        uint notClaimedIntervals = (now - lastClaimed) / interval;\n        for(uint i = 0; i < notClaimedIntervals; i++) {\n            value += usedCapaInInterval[lastClaimed + notClaimedIntervals * interval] * home.getTokenForOneCapacity();\n            value += home.getPauschale();\n        }\n\n    }\n}\n\ncontract ERC20Interface {\n\n    uint256 public totalSupply;\n\n    function balanceOf(address _owner) public view returns (uint256 balance);\n\n    function transfer(address _to, uint256 _value) public returns (bool success);\n\n    function transferFrom(address _from, address _to, uint256 _value) public returns (bool success);\n\n    function approve(address _spender, uint256 _value) public returns (bool success);\n\n    function allowance(address _owner, address _spender) public view returns (uint256 remaining);\n\n    event Transfer(address indexed _from, address indexed _to, uint256 _value);\n\n    event Approval(address indexed _owner, address indexed _spender, uint256 _value);\n\n}\n\n\ncontract TokenBase is ERC20Interface {\n\n    string public constant NAME = \"BatterChain\";\n\n    string public constant SYMBOL = \"BAC\";\n\n    uint256 public constant INITIAL_AMOUNT = 100000;\n\n    address public owner;\n\n    mapping (address => uint256) public balances;\n\n    mapping (address => mapping (address => uint256)) allowed;\n\n    constructor() public {\n        totalSupply = INITIAL_AMOUNT;\n        balances[msg.sender] = INITIAL_AMOUNT;\n        owner = msg.sender;\n    }\n\n    function balanceOf(address _owner) public view returns (uint256 balance) {\n        return balances[_owner];\n    }\n\n    function giveTokenFromTo(address _to, uint _value) public{\n        require(msg.sender == owner, \"No permission!\");\n        balances[owner] -= _value;\n        balances[_to] += _value;\n    }\n\n    function transfer(address _to, uint256 _value) public returns (bool success) {\n\n        require(balances[msg.sender] >= _value, \"Sender has not enought Token\");\n\n        balances[msg.sender] -= _value;\n        balances[_to] += _value;\n\n        emit Transfer(msg.sender, _to, _value);\n        return true;\n    }\n\n    function transferFrom(address _from, address _to, uint256 _value) public returns (bool success) {\n        uint256 allowance = allowed[_from][_to];\n        require(balances[_from] >= _value, \"Sender has not enought Token\");\n        require(allowance >= _value, \"There is no allowance for this value\");\n\n        balances[_to] += _value;\n        balances[_from] -= _value;\n        allowed[_from][_to] -= _value;\n\n        emit Transfer(_from, _to, _value);\n        return true;\n    }\n\n    function approve(address _spender, uint256 _value) public returns (bool success) {\n        allowed[msg.sender][_spender] = _value;\n\n        emit Approval(msg.sender, _spender, _value);\n        return true;\n    }\n\n    function allowance(address _owner, address _spender) public view returns (uint256 remaining) {\n        return allowed[_owner][_spender];\n    }\n\n    function addToken(uint _value) public {\n        require(owner == msg.sender, \"No Access!\");\n        totalSupply +=  _value;\n        balances[owner] += _value;\n    }\n}\n",
  "sourcePath": "/Users/matthiasbabel/git/ht/peer/contracts/Contract.sol",
  "compiler": {
    "name": "solc",
    "version": "0.4.24+commit.e67f0147.Emscripten.clang"
  },
  "schemaVersion": "2.0.1",
  "updatedAt": "2018-12-17T15:27:22.436Z"
}