{
  "contractName": "Storage",
  "abi": [
    {
      "constant": true,
      "inputs": [],
      "name": "creator",
      "outputs": [
        {
          "name": "",
          "type": "address"
        }
      ],
      "payable": false,
      "stateMutability": "view",
      "type": "function"
    },
    {
      "constant": true,
      "inputs": [],
      "name": "provider",
      "outputs": [
        {
          "name": "",
          "type": "address"
        }
      ],
      "payable": false,
      "stateMutability": "view",
      "type": "function"
    },
    {
      "constant": true,
      "inputs": [],
      "name": "capacity",
      "outputs": [
        {
          "name": "",
          "type": "uint256"
        }
      ],
      "payable": false,
      "stateMutability": "view",
      "type": "function"
    },
    {
      "constant": true,
      "inputs": [],
      "name": "owner",
      "outputs": [
        {
          "name": "",
          "type": "address"
        }
      ],
      "payable": false,
      "stateMutability": "view",
      "type": "function"
    },
    {
      "constant": true,
      "inputs": [],
      "name": "coordinates",
      "outputs": [
        {
          "name": "x",
          "type": "uint256"
        },
        {
          "name": "y",
          "type": "uint256"
        }
      ],
      "payable": false,
      "stateMutability": "view",
      "type": "function"
    },
    {
      "constant": true,
      "inputs": [],
      "name": "futureIntervals",
      "outputs": [
        {
          "name": "",
          "type": "uint256"
        }
      ],
      "payable": false,
      "stateMutability": "view",
      "type": "function"
    },
    {
      "constant": true,
      "inputs": [
        {
          "name": "",
          "type": "uint256"
        }
      ],
      "name": "usedCapacityInInterval",
      "outputs": [
        {
          "name": "",
          "type": "uint256"
        }
      ],
      "payable": false,
      "stateMutability": "view",
      "type": "function"
    },
    {
      "inputs": [
        {
          "name": "_owner",
          "type": "address"
        },
        {
          "name": "_x",
          "type": "uint256"
        },
        {
          "name": "_y",
          "type": "uint256"
        },
        {
          "name": "_capacity",
          "type": "uint256"
        }
      ],
      "payable": false,
      "stateMutability": "nonpayable",
      "type": "constructor"
    },
    {
      "constant": false,
      "inputs": [
        {
          "name": "_interval",
          "type": "uint256"
        },
        {
          "name": "_capacity",
          "type": "uint256"
        }
      ],
      "name": "useCapacityInInterval",
      "outputs": [
        {
          "name": "left",
          "type": "uint256"
        }
      ],
      "payable": false,
      "stateMutability": "nonpayable",
      "type": "function"
    },
    {
      "constant": false,
      "inputs": [
        {
          "name": "_value",
          "type": "uint256"
        }
      ],
      "name": "setCapacity",
      "outputs": [
        {
          "name": "",
          "type": "bool"
        }
      ],
      "payable": false,
      "stateMutability": "nonpayable",
      "type": "function"
    },
    {
      "constant": false,
      "inputs": [],
      "name": "disburse",
      "outputs": [
        {
          "name": "value",
          "type": "uint256"
        }
      ],
      "payable": false,
      "stateMutability": "nonpayable",
      "type": "function"
    },
    {
      "constant": true,
      "inputs": [
        {
          "name": "_interval",
          "type": "uint256"
        }
      ],
      "name": "capacityLeft",
      "outputs": [
        {
          "name": "",
          "type": "uint256"
        }
      ],
      "payable": false,
      "stateMutability": "view",
      "type": "function"
    }
  ],
  "bytecode": "0x6080604052600360045534801561001557600080fd5b5060405160808061105883398101806040528101908080519060200190929190805190602001909291908051906020019092919080519060200190929190505050336000806101000a81548173ffffffffffffffffffffffffffffffffffffffff021916908373ffffffffffffffffffffffffffffffffffffffff16021790555083600160006101000a81548173ffffffffffffffffffffffffffffffffffffffff021916908373ffffffffffffffffffffffffffffffffffffffff1602179055508260076000018190555081600760010181905550806003819055503373ffffffffffffffffffffffffffffffffffffffff1663085d48836040518163ffffffff167c0100000000000000000000000000000000000000000000000000000000028152600401602060405180830381600087803b15801561015657600080fd5b505af115801561016a573d6000803e3d6000fd5b505050506040513d602081101561018057600080fd5b8101908080519060200190929190505050600260006101000a81548173ffffffffffffffffffffffffffffffffffffffff021916908373ffffffffffffffffffffffffffffffffffffffff1602179055503373ffffffffffffffffffffffffffffffffffffffff1663b61daaee6040518163ffffffff167c0100000000000000000000000000000000000000000000000000000000028152600401602060405180830381600087803b15801561023557600080fd5b505af1158015610249573d6000803e3d6000fd5b505050506040513d602081101561025f57600080fd5b8101908080519060200190929190505050600560006101000a81548173ffffffffffffffffffffffffffffffffffffffff021916908373ffffffffffffffffffffffffffffffffffffffff16021790555050505050610d95806102c36000396000f3006080604052600436106100af576000357c0100000000000000000000000000000000000000000000000000000000900463ffffffff16806302d05d3f146100b4578063085d48831461010b5780634decae40146101625780635cfc1a51146101a35780637d3827a5146101ce5780638da5cb5b1461021957806391915ef814610270578063a4b889b7146102b5578063abc6fd0b146102e7578063c34ec23414610312578063f613bd981461033d575b600080fd5b3480156100c057600080fd5b506100c961037e565b604051808273ffffffffffffffffffffffffffffffffffffffff1673ffffffffffffffffffffffffffffffffffffffff16815260200191505060405180910390f35b34801561011757600080fd5b506101206103a3565b604051808273ffffffffffffffffffffffffffffffffffffffff1673ffffffffffffffffffffffffffffffffffffffff16815260200191505060405180910390f35b34801561016e57600080fd5b5061018d600480360381019080803590602001909291905050506103c9565b6040518082815260200191505060405180910390f35b3480156101af57600080fd5b506101b8610412565b6040518082815260200191505060405180910390f35b3480156101da57600080fd5b506102036004803603810190808035906020019092919080359060200190929190505050610418565b6040518082815260200191505060405180910390f35b34801561022557600080fd5b5061022e610956565b604051808273ffffffffffffffffffffffffffffffffffffffff1673ffffffffffffffffffffffffffffffffffffffff16815260200191505060405180910390f35b34801561027c57600080fd5b5061029b6004803603810190808035906020019092919050505061097c565b604051808215151515815260200191505060405180910390f35b3480156102c157600080fd5b506102ca610a52565b604051808381526020018281526020019250505060405180910390f35b3480156102f357600080fd5b506102fc610a64565b6040518082815260200191505060405180910390f35b34801561031e57600080fd5b50610327610d4b565b6040518082815260200191505060405180910390f35b34801561034957600080fd5b5061036860048036038101908080359060200190929190505050610d51565b6040518082815260200191505060405180910390f35b6000809054906101000a900473ffffffffffffffffffffffffffffffffffffffff1681565b600260009054906101000a900473ffffffffffffffffffffffffffffffffffffffff1681565b600060066000838152602001908152602001600020546003541115156103f2576000905061040d565b60066000838152602001908152602001600020546003540390505b919050565b60035481565b6000428310151515610492576040517f08c379a000000000000000000000000000000000000000000000000000000000815260040180806020018281038252600d8152602001807f4974277320746f6f206c6174650000000000000000000000000000000000000081525060200191505060405180910390fd5b8161049c846103c9565b10151515610512576040517f08c379a00000000000000000000000000000000000000000000000000000000081526004018080602001828103825260118152602001807f4e6f206361706163697479206c6566742100000000000000000000000000000081525060200191505060405180910390fd5b600560009054906101000a900473ffffffffffffffffffffffffffffffffffffffff1673ffffffffffffffffffffffffffffffffffffffff163373ffffffffffffffffffffffffffffffffffffffff161415156105d7576040517f08c379a000000000000000000000000000000000000000000000000000000000815260040180806020018281038252600d8152602001807f4e6f7420746f6b656e426173650000000000000000000000000000000000000081525060200191505060405180910390fd5b826004546000809054906101000a900473ffffffffffffffffffffffffffffffffffffffff1673ffffffffffffffffffffffffffffffffffffffff1663ff0b3fc56040518163ffffffff167c0100000000000000000000000000000000000000000000000000000000028152600401602060405180830381600087803b15801561066057600080fd5b505af1158015610674573d6000803e3d6000fd5b505050506040513d602081101561068a57600080fd5b8101908080519060200190929190505050026000809054906101000a900473ffffffffffffffffffffffffffffffffffffffff1673ffffffffffffffffffffffffffffffffffffffff166344e43c986040518163ffffffff167c0100000000000000000000000000000000000000000000000000000000028152600401602060405180830381600087803b15801561072157600080fd5b505af1158015610735573d6000803e3d6000fd5b505050506040513d602081101561074b57600080fd5b810190808051906020019092919050505001101515156107d3576040517f08c379a000000000000000000000000000000000000000000000000000000000815260040180806020018281038252600e8152602001807f4974277320746f6f206561726c7900000000000000000000000000000000000081525060200191505060405180910390fd5b60008060009054906101000a900473ffffffffffffffffffffffffffffffffffffffff1673ffffffffffffffffffffffffffffffffffffffff1663ff0b3fc56040518163ffffffff167c0100000000000000000000000000000000000000000000000000000000028152600401602060405180830381600087803b15801561085a57600080fd5b505af115801561086e573d6000803e3d6000fd5b505050506040513d602081101561088457600080fd5b81019080805190602001909291905050508481151561089f57fe5b06141515610915576040517f08c379a00000000000000000000000000000000000000000000000000000000081526004018080602001828103825260178152602001807f4e6f207065726d69737369626c6520696e74657276616c00000000000000000081525060200191505060405180910390fd5b816006600085815260200190815260200160002060008282540192505081905550600660008481526020019081526020016000205460035403905092915050565b600160009054906101000a900473ffffffffffffffffffffffffffffffffffffffff1681565b60008060009054906101000a900473ffffffffffffffffffffffffffffffffffffffff1673ffffffffffffffffffffffffffffffffffffffff163373ffffffffffffffffffffffffffffffffffffffff16141515610a42576040517f08c379a000000000000000000000000000000000000000000000000000000000815260040180806020018281038252600d8152602001807f4e6f207065726d697373696f6e0000000000000000000000000000000000000081525060200191505060405180910390fd5b8160038190555060019050919050565b60078060000154908060010154905082565b6000600160009054906101000a900473ffffffffffffffffffffffffffffffffffffffff1673ffffffffffffffffffffffffffffffffffffffff163373ffffffffffffffffffffffffffffffffffffffff16141515610b2b576040517f08c379a00000000000000000000000000000000000000000000000000000000081526004018080602001828103825260098152602001807f4e6f74206f776e6572000000000000000000000000000000000000000000000081525060200191505060405180910390fd5b600560009054906101000a900473ffffffffffffffffffffffffffffffffffffffff1673ffffffffffffffffffffffffffffffffffffffff166370a08231306040518263ffffffff167c0100000000000000000000000000000000000000000000000000000000028152600401808273ffffffffffffffffffffffffffffffffffffffff1673ffffffffffffffffffffffffffffffffffffffff168152602001915050602060405180830381600087803b158015610be857600080fd5b505af1158015610bfc573d6000803e3d6000fd5b505050506040513d6020811015610c1257600080fd5b81019080805190602001909291905050509050600560009054906101000a900473ffffffffffffffffffffffffffffffffffffffff1673ffffffffffffffffffffffffffffffffffffffff1663a9059cbb600160009054906101000a900473ffffffffffffffffffffffffffffffffffffffff16836040518363ffffffff167c0100000000000000000000000000000000000000000000000000000000028152600401808373ffffffffffffffffffffffffffffffffffffffff1673ffffffffffffffffffffffffffffffffffffffff16815260200182815260200192505050602060405180830381600087803b158015610d0c57600080fd5b505af1158015610d20573d6000803e3d6000fd5b505050506040513d6020811015610d3657600080fd5b81019080805190602001909291905050505090565b60045481565b600660205280600052604060002060009150905054815600a165627a7a7230582033d310675d88b566a43b9d975f7aa5f995b7a1434fb8054d12bd4a85967b4f610029",
  "source": "pragma solidity ^0.4.24;\n\n//Sowas wie service provided reinbringen\n\ncontract VirtualBattery {\n    address public provider;\n    TokenBase public tokenBase;\n    Storage[] public storages;\n    mapping(address => address) public personalStorage;\n    uint public intervalLength = 30;\n    uint public capacityInToken = 1;\n    event ChangeCapacity(address indexed _address, uint _capacity);\n    modifier onlyOwner() {\n        require(msg.sender == provider, \"No permission\");\n        _;\n    }\n    constructor() public {\n        provider = msg.sender;\n        tokenBase = new TokenBase();\n    }\n    //Bindet Batterie an virtuelle Batterie an, Jede von hier aus gespawnte Entitaet kann nur von dem hier vorhanden Provider bedient werden\n    function newStorage(uint _x, uint _y, uint _capacity) public returns(address) {\n        require(personalStorage[msg.sender] == address(0));\n        Storage tmp = new Storage(msg.sender, _x, _y, _capacity);\n        storages.push(tmp);\n        personalStorage[msg.sender] = address(tmp);\n        emit ChangeCapacity(address(tmp), _capacity);\n        return address(tmp);\n    }\n    //Kosten pro genutzter Kapazitaet\n    function setCapacityInToken(uint _value) public onlyOwner returns(bool) {\n        capacityInToken = _value;\n        return true;\n    }\n    function getStorageArray() public view returns(Storage[] memory) {\n      return storages;\n    }\n    //Intervall\n    function getCurrentInterval() public view returns(uint) {\n        return (now - (now % intervalLength));\n    }\n\n    function getNextInterval() public view returns(uint) {\n        return (now - (now % intervalLength)) + intervalLength;\n    }\n\n    function getStorages() public view returns(Storage[] memory) {\n        return storages;\n    }\n\n    function setCapacity(uint  _value) public returns(bool){\n        require(personalStorage[msg.sender] != address(0), \"There is no Storage\");\n        emit ChangeCapacity(personalStorage[msg.sender], _value);\n        return Storage(personalStorage[msg.sender]).setCapacity(_value);\n    }\n\n}\n\ncontract Storage {\n    address public creator;\n    address public owner;\n    address public provider;\n    uint public capacity;\n    uint public futureIntervals = 3;\n    TokenBase tokenBase;\n    mapping(uint => uint) public usedCapacityInInterval;\n    struct Coordinates {\n        uint x;\n        uint y;\n    }\n    Coordinates public coordinates;\n    modifier onlyOwner() {\n        require(msg.sender == owner, \"Not owner\" );\n        _;\n    }\n\n    constructor(address _owner, uint _x, uint _y, uint _capacity) public {\n        creator = msg.sender;\n        owner = _owner;\n        coordinates.x = _x;\n        coordinates.y = _y;\n        capacity = _capacity;\n        provider = VirtualBattery(msg.sender).provider();\n        tokenBase = VirtualBattery(msg.sender).tokenBase();\n    }\n\n    function useCapacityInInterval(uint _interval, uint _capacity) public returns(uint left){\n        require(_interval >= now, \"It's too late\");\n        require(capacityLeft(_interval) >= _capacity, \"No capacity left!\");\n        require(msg.sender == address(tokenBase), \"Not tokenBase\");\n        //Verhindert, dass zu weit in der Zukunft die Kapazitaet gebucht wird, damit Benutzer Herr ueber seine Batterie bleibt\n        require((VirtualBattery(creator).getCurrentInterval() + VirtualBattery(creator).intervalLength() * futureIntervals) >= _interval, \"It's too early\");\n        require((_interval % VirtualBattery(creator).intervalLength()) == 0, \"No permissible interval\");\n        usedCapacityInInterval[_interval] += _capacity;\n        return capacity - usedCapacityInInterval[_interval];\n    }\n\n    function setCapacity(uint _value) public returns(bool) {\n        require(msg.sender == creator, \"No permission\");\n        capacity = _value;\n        return true;\n    }\n\n    function disburse() public onlyOwner returns(uint value) {\n        value = tokenBase.balanceOf(address(this));\n        tokenBase.transfer(owner, value);\n    }\n\n    function capacityLeft(uint _interval) public view returns(uint) {\n        if(capacity <=  usedCapacityInInterval[_interval])\n            return 0;\n        return capacity - usedCapacityInInterval[_interval];\n    }\n\n\n\n}\n\ncontract TokenBase {\n    string public constant NAME = \"EnerChain Token\";\n    string public constant SYMBOL = \"ECT\";\n    uint8 public constant DECIMALS = 0;\n    uint256 public constant INITIAL_AMOUNT = 9000000000000000000000000000000;\n    uint256 constant public tokenInWei = 1000000;\n    mapping (address => uint256) public balances;\n    mapping (address => mapping (address => uint256)) allowed;\n    uint public totalSupply;\n    event Transfer(address indexed _from, address indexed _to, uint indexed _value);\n    event Approval(address indexed _owner, address indexed _to, uint256 _value);\n    address public creator;\n\n    constructor() public {\n        totalSupply = INITIAL_AMOUNT;\n        balances[address(this)] = INITIAL_AMOUNT;\n        creator = msg.sender;\n    }\n\n    function findCapacity(uint _x, uint _y, uint _interval, uint _value) public returns(uint valueLeft){\n        Storage best;\n        uint shortest = uint(int(-1));\n        valueLeft = _value;\n        Storage[] memory storages = VirtualBattery(creator).getStorages();\n        for(uint i = 0; i < storages.length; i++) {\n            if(storages[i].capacityLeft(_interval) > 0) {\n                uint x = 0;\n                uint y = 0;\n                uint len = 0;\n                (x, y) = storages[i].coordinates();\n                //Abs\n                if(_x > x)\n                    len = _x - x;\n                else\n                    len = x - _x;\n                if(_y > y)\n                    len += _y - y;\n                else\n                    len += y - _y;\n                if(len < shortest){\n                    shortest = len;\n                    best = storages[i];\n                }\n            }\n        }\n        if(address(best) != address(0)){\n            if(best.capacityLeft(_interval) >= valueLeft) {\n               useCapacity(address(best), _interval, valueLeft);\n             valueLeft = 0;\n            }\n            else {\n                uint capacity = best.capacityLeft(_interval);\n                useCapacity(address(best), _interval, capacity);\n                valueLeft -= capacity;\n                findCapacity(_x, _y, _interval, valueLeft);\n            }\n        }\n    }\n    //Sicherung der Kapazitaet in einem Intervall\n    function useCapacity(address _storage, uint _interval, uint _value) internal returns(uint capacityLeft) {\n        uint cost = VirtualBattery(creator).capacityInToken() * _value;\n        require(balances[msg.sender] >= cost, \"Not enough token\");\n        require(msg.sender == VirtualBattery(creator).provider(), \"Not provider\");\n        capacityLeft = Storage(_storage).useCapacityInInterval(_interval, _value);\n        transfer(_storage, cost);\n\n    }\n\n    //Token kaufen\n    function buy() public payable returns(uint amount) {\n        amount = (msg.value/tokenInWei);\n        uint256 rest = msg.value - (amount * tokenInWei);\n        if(rest != 0) {\n            msg.sender.transfer(rest);\n        }\n        this.transfer(msg.sender, amount);\n    }\n\n    function balanceOf(address _owner) public view returns (uint256 balance) {\n        return balances[_owner];\n    }\n\n    function transfer(address _to, uint256 _value) public returns (bool success) {\n        require(balances[msg.sender] >= _value, \"Sender has not enough Token\");\n        balances[msg.sender] -= _value;\n        balances[_to] += _value;\n        emit Transfer(msg.sender, _to, _value);\n        return true;\n    }\n\n    function transferFrom(address _from, address _to, uint256 _value) public returns (bool success) {\n        uint256 allowance = allowed[_from][_to];\n        require(balances[_from] >= _value, \"Sender has not enough Token\");\n        require(allowance >= _value, \"There is no allowance for this value\");\n        balances[_to] += _value;\n        balances[_from] -= _value;\n        allowed[_from][_to] -= _value;\n        emit Transfer(_from, _to, _value);\n        return true;\n    }\n\n    function approve(address _spender, uint256 _value) public returns (bool success) {\n        allowed[msg.sender][_spender] = _value;\n        emit Approval(msg.sender, _spender, _value);\n        return true;\n    }\n\n    function allowance(address _owner, address _spender) public view returns (uint256 remaining) {\n        return allowed[_owner][_spender];\n    }\n\n    function getTokenInWei() public pure returns(uint256){\n        return tokenInWei;\n    }\n\n    function tokenLeft() public view returns (uint256) {\n        return balances[address(this)];\n    }\n\n    function disburseEther(uint _amount) public returns(uint value) {\n        require(_amount <= balances[msg.sender]);\n        value = _amount * tokenInWei;\n        transfer(address(this), _amount);\n        msg.sender.transfer(value);\n    }\n\n    function() external payable{\n    }\n}\n",
  "sourcePath": "/Users/matthiasbabel/git/bachelor-projekt/p2p/peer/contracts/Contracts.sol",
  "compiler": {
    "name": "solc",
    "version": "0.4.24+commit.e67f0147.Emscripten.clang"
  },
  "schemaVersion": "2.0.1",
  "updatedAt": "2018-12-19T17:31:50.892Z"
}